:020000040800F2
:1000000018020020D50000087504000869040008E3
:1000100000000000000000000000000000000000E0
:10002000000000000000000000000000790400084B
:100030000000000000000000770400087B040008B6
:10004000E7000008E7000008E7000008E7000008F4
:10005000E7000008E7000008E7000008E7000008E4
:10006000E7000008E7000008E7000008E7000008D4
:10007000E7000008E7000008E7000008E7000008C4
:10008000E7000008E7000008E7000008E7000008B4
:10009000E7000008E7000008E7000008E7000008A4
:1000A000E7000008E7000008E7000008E700000894
:1000B000E7000008E7000008000000000000000062
:1000C0000348854600F02AF800480047FD04000870
:1000D000180200200448804704480047FEE7FEE776
:1000E000FEE7FEE7FEE7FEE785040008C100000822
:1000F00030B50B46014600202022012409E00D46C0
:10010000D5409D4205D31D469540491B2546954047
:1001100040191546521E002DF1DC30BD064C01255C
:10012000064E05E0E36807CC2B430C3C984710349F
:10013000B442F7D3FFF7C8FFA8050008C8050008B8
:1001400010B586B005221207904206D08B4A904225
:100150000CD11D4A1368022402E01B4A13680124D3
:1001600023431360126822400192019A00220592F3
:100170000492022301AC0EC401A900F03FF806B0BE
:1001800010BDC04610B586B005221207904206D0B9
:100190007A4A90420CD10C4A1368022402E00A4ABF
:1001A0001368012423431360126822400192019ACC
:1001B000002204920392012302930191059201A966
:1001C00000F01CF806B010BD3410024080B500F0FD
:1001D000D7F8411E4842484180BD0000B0B50446F2
:1001E00000F0E4F80546601C02D08D484068041910
:1001F00000F0DCF8401BA042FAD3B0BDF0B589B0E6
:100200000F465A49884201D0032100E002210091A3
:1002100000252A4607952E4602979FE00124049464
:10022000B44023400693002B00D191E0089603923E
:1002300005957B6810211943122910D13D461C21D8
:10024000079A11400F228A40089BDE08B6008619E3
:10025000376A97432A698A403A4332626B680326B9
:100260003146059DA94007688F431A4601963240E2
:10027000AA403A4306460260C943122B15D8049A95
:100280009A403D48024210D03046B2680A40029D72
:10029000EF68059DAF401743B760DA06D20F089F9D
:1002A000BA407768A74317437760F2680A40029F15
:1002B0003046B968A9401143F160D900039A089EFD
:1002C00046D5182111400F238B403246019CA24392
:1002D000274CA218146E9C43603205231B079842DA
:1002E00005D0A74B9842009E02D1049E00E0002654
:1002F0008E40264316601F4909687A68D30302D5E9
:10030000069B194301E0069B9943089E194B19600F
:100310005968930302D5069B194301E0069B994354
:10032000144B596012490968D30202D5069B194340
:1003300001E0069B99430E4B19605968920202D561
:10034000069A114301E0069A9143094A5160039AC3
:10035000AD1C08320799091D0791761C3B681946A8
:10036000F14000D05AE709B0F0BDC0460008005087
:1003700000180240801802400600060000040050E9
:1003800000690840002800D00120704742690A42F5
:1003900001D0282200E0182281507047002A01D0A5
:1003A000182200E0282281507047000005480068AC
:1003B0007047C0461A48406802490A681018086029
:1003C0007047C0461000002080B5032000F008F8F8
:1003D000002801D0012080BD00F026F8002080BD5B
:1003E00070B50F4E71680124002916D005467D2096
:1003F000C000FFF77DFE01460A480068FFF778FE5F
:1004000000F018F8032D08D8002806D10024E04396
:100410002946224600F009F83560204670BDC046E6
:100420000000002008000020704780B500F046F86A
:1004300080BD0000401E010E01D001207047074919
:10044000074A5060074803680B4003218907591881
:10045000016000209060072111607047FFFFFF00DE
:1004600010E000E020ED00E0FEE780B50022FFF79D
:1004700095FF80BD70477047704780B5FFF79AFFC2
:1004800080BD00007F204106084802680A400849F4
:1004900009681143074A126812040A4301214B03F9
:1004A00013430360C8060449086070470410024003
:1004B0000832FF1F4833FF1F08ED00E0002805DB6E
:1004C0000322034693430C4A9A1806E00F22024087
:1004D000083A03239A43074BD2188007C00E8901BC
:1004E000C9B28140FF2383401068984308431060DD
:1004F0007047C0461CED00E000E400E082B0FFF76A
:1005000063FF1F20C4021E482146FFF73BFE052063
:10051000060701200190070230463946FFF732FEF8
:1005200006213046FFF70CFE164D04213046FFF73A
:100530004DFE002801D10020287002213046FFF72F
:1005400045FE00280ED0287800280DD13220FFF774
:1005500045FE30463946FFF788FF09482146FFF738
:1005600084FFE2E701982870FA20FFF737FE04487D
:100570002146FFF70BFF30463946FFF707FFD4E768
:10058000000400500C00002002E008C8121F08C13F
:10059000002AFAD170477047002001E001C1121F04
:1005A000002AFBD170470000C805000800000020A9
:1005B0001000000088050008D80500081000002081
:1005C0000802000098050008040000000100000077
:0805D00000127A000100000096
:04000005080000C12E
:00000001FF
