:020000040800F2
:1000000068020020D5000008B71C0008211B00086A
:1000100000000000000000000000000000000000E0
:10002000000000000000000000000000BB1C0008F1
:100030000000000000000000B91C0008BD1C000802
:10004000E7000008E7000008E7000008E7000008F4
:10005000E7000008E7000008E7000008E7000008E4
:10006000E7000008E7000008E7000008E7000008D4
:10007000DD030008E7000008E7000008E7000008CB
:10008000E7000008E7000008E7000008E7000008B4
:10009000E7000008E7000008E7000008E7000008A4
:1000A000E7000008E7000008E7000008E700000894
:1000B000E7000008E7000008000000000000000062
:1000C0000348854600F078F9004800478D1F000876
:1000D000680200200448804704480047FEE7FEE726
:1000E000FEE7FEE7FEE7FEE7C51C0008C1000008CA
:1000F00030B50B46014600202022012409E00D46C0
:10010000D5409D4205D31D469540491B2546954047
:1001100040191546521E002DF1DC30BDD2B201E06F
:100120000270401C491EFBD270470022F6E710B552
:1001300013460A4604461946FFF7F0FF204610BD55
:10014000F8B502464A40D40F42004B0052085B0803
:100150009A4202D20246084611464A0023D0C30DF5
:100160004A00DDB2120EAD1A202D35DA4902012601
:10017000490AF6058A19002C00D0524220214F1B53
:100180001146B9402A411018C20D9A4221D0002CC4
:1001900017D0012D08DCDA05801AD20F8019D2079A
:1001A000DBB200F0CFF8F8BDDA05801A0123400079
:1001B0001B06C01880185A428018CA0F1043490005
:1001C00007E04908C2071143DA05801A8019400880
:1001D000801800F0AFF8F8BD61000122511A001B31
:1001E000F7E70122D2075140AAE70122D207504087
:1001F000A6E7024670B54A40D30FDB0740002DD07A
:100200004A002AD0010E140E000212020919400AF7
:10021000520A8418E50104465443000A120A2E04C7
:100220005043A4194219200CC543AA18120C0125E9
:10023000AD03521C521912047F39240400D0521C01
:10024000104301D44000491EC2B20C06C009201858
:10025000401C4008802A02D003E0002070BD400806
:100260004000002900DA0020184370BD70B5024636
:100270004A40D50F40004A00ED07400852080028C8
:1002800014D0002A12D0C40DD30D41020120C005A4
:100290005202490A520AE41A091812187D3491428E
:1002A00001D3641C00E04900002C01DA002070BD7D
:1002B0000023914201D3891A0343400849000028D2
:1002C000F7D100290AD0914202D10121C90705E0E6
:1002D000914201D2012101E00121C943E005C0188A
:1002E000401900F027F870BDC217C10F504010B57B
:1002F0004018CA079623002100F024F810BD10B55D
:1003000000229623114600F01DF810BD4100400266
:100310000122400AD205090E80187F2901DA002047
:100320007047962903DC9622511AC84070479639C7
:1003300088407047002904DA401C490001D1400878
:100340004000704770B40024050C05D1102400044F
:1003500002D1002921D01124050E01D10002083458
:10036000050F01D10001241D850F01D18000A41CBF
:10037000002801DB4000641C002908D020252E1B2A
:100380000D46F540A14000D0012129430843010654
:100390001B1B000ADB1D02D5002070BC7047DB056B
:1003A000181880180029F8DA401C4900F5D170BCF3
:1003B0004008400070470000064C0125064E05E04D
:1003C000E36807CC2B430C3C98471034B442F7D376
:1003D000FFF77AFE94240008B424000880B5024890
:1003E00000F004FB80BDC0462C000020F8B5044698
:1003F000006881680027C90717D081680125A943D3
:10040000816000F079FD064620688068C0070CD046
:1004100000F072FD801B0328F6D3E06A102101432F
:10042000E162206B2843206300E03D46284601B08E
:10043000F0BD0000FEB50446002702970068816801
:10044000C9072FD1816801252943816010210191BD
:10045000C943016008310160144800681449FFF77E
:1004600047FE14214143029102E00298401E02908F
:1004700002980028F9D100F03FFD06462068806808
:10048000C0070FD100F038FD801B0328F6D32820C9
:1004900000212154E06A01990843E062206B28435F
:1004A000206300E03D46284603B0F0BD1000002068
:1004B00040420F00B0B58AB06C46201D1421FFF7F2
:1004C00034FE0125680218490A6802430A60096877
:1004D00001400791079868050690A8030090204600
:1004E00000F0FEFD2420114C002121542C20215429
:1004F0000F486061A161E16121620720400425632A
:100500006063A5621434204600F000FB04200990CB
:1005100008950920079007A9204600F0BDF920465C
:1005200000F048F90AB0B0BD4010024018000020A9
:100530000024014010B586B005221207904206D073
:10054000754A90420CD1734A1368022402E0714A42
:100550001368012423431360126822400192019A18
:10056000002205920492022301AC0EC401A900F0FE
:10057000EBFB06B010BDC04670B586B0052424075D
:10058000A04206D0644CA0420CD1624C25680226E1
:1005900002E0604C2568012635432560246834401C
:1005A0000194019C0024059401AD1EC501A900F031
:1005B000CBFB06B070BDC04610B586B00522120751
:1005C000904206D0544A90420CD1524A13680224F9
:1005D00002E0504A1368012423431360126822404A
:1005E0000192019A00220492039201230293019145
:1005F000059201A900F0A8FB06B010BDF0B597B0B8
:1006000007AC201D3C21FFF790FD012080070790DB
:1006100000262046314601F04FFA0425204629469F
:1006200001F04AFA0696059603966020009004961B
:1006300002965B488088800801906F4620463946C4
:10064000324601F095F92046314601F013FA204672
:1006500039462A4601F08CF92046294601F00AFA6B
:1006600017B0F0BD70B596B00AAD28460830282105
:10067000FFF75BFD00241094012630020F900F203D
:100680000A902248006812940B9413960D94204906
:100690000840491C01431191284600F0E9FE0994E5
:1006A000089407940720069006A8214600F0B6FD9E
:1006B0001848816831438160816831400191019916
:1006C000016831430160016831400191019901687D
:1006D0000226314301600068304001900198059680
:1006E00004940394029601960520000701AD294663
:1006F00000F02AFB059604940394029608200190CA
:100700000548294600F020FB16B070BD0832FF1FD7
:10071000FF1F00003410024000040050F0B599B0F3
:1007200009AC204614302C21FFF7FFFC002508956A
:100730000795069505950F950D9518480C900B9506
:100740003F200A90012080070990204601F075F9AA
:1007500060260296069504951148808880080390CB
:1007600002AF042201922046394601F001F90296B7
:10077000069504950A4880888008039020463946EB
:100780002A4601F0F5F82046019901F073F9204658
:10079000294601F06FF919B0F0BDC046E70300002B
:1007A0000000002080B500F091FB411E4842484106
:1007B00080BD0000F0B585B00446002604962820D0
:1007C000205C012801D102255EE020462830012767
:1007D000039007702046FFF709FE0546002801D068
:1007E000039950E00296E06A29490140881CE062C2
:1007F000774806680197B80300F0E0FB01463046F1
:10080000FFF776FC400001E00498401E0490049835
:100810000028F9D11220C243206881681027C90737
:1008200012D10092816808220A43826000F064FBC2
:10083000064620688168090708D500F05DFB801B2B
:100840000A28F6D9019D12E0019D16E08168042274
:100850000A43826000F050FB06462068806840072B
:1008600008D500F049FB801B0B28F6D30125029E1A
:10087000009A03E0009A0F320127029E0399E06A72
:1008800010403843E0620E70284605B0F0BDC04607
:10089000FDEEFFFF70470000F0B585B00023049324
:1008A0002822825C012A01D102216FE0044628340B
:1008B000012626704A68062A0393029401960DD8F1
:1008C000052353435A1F0568AF6B0B681E469640BD
:1008D0001F249440A7432A46383219E005680524AE
:1008E00054430C2A0AD8233C6F6B0B681E46A64063
:1008F0001F22A24097432A46343209E0413C2F6B25
:100900000B681E46A6401F22A24097432A4630325B
:1009100037431760142B0BD3032058433C38EA6845
:1009200089688140072383409A430A43EA6029E0AB
:10093000092B1DD903225A431E3A2C69896891401C
:1009400007269640B4430C432C611946019FB943D6
:100950001029039C2146029E17D11C4A11460839D2
:100960008D4216D0C16A20220A43C26239460CE089
:1009700003205843072282406B6993438968814072
:1009800019436961039C2146029E3470084605B0F4
:10099000F0BD106800022146F7D40120C00511689F
:1009A00001431160102B2146EFD109480068094925
:1009B000FFF79EFB0A214143049102E00498401E88
:1009C000049004980028F9D12146DEE7082401406C
:1009D0001000002040420F000068006D014988802F
:1009E0007047C0461800002070470000B0B50446AC
:1009F00000684168890628D50168890725D5E16A1C
:100A0000C90604D401214902E26A0A43E2620721CD
:100A1000490482680A403C4D8A4210D1217C002959
:100A20000DD14168202291434160E06A2840E06294
:100A3000E06AC00403D4E06A01210143E162204678
:100A4000FFF7CAFFEE35206805604168090632D518
:100A5000016849072FD5E16AC90604D40121490379
:100A6000E26A0A43E26207210A0383681340934261
:100A70000FD1416880229143416001200103E26A65
:100A80008A43E262E16AC9050ED4E16A0143E16288
:100A90000AE04268520507D4490482680A408A4243
:100AA00002D1217C0029E4D02046FFF7F3FE16494D
:100AB000F43120680160416849060ED50168C90714
:100AC0000BD001200004E16A0143E162204600F0FE
:100AD000B7F80D49FF31206801600168890611D51A
:100AE000416889000ED58168C90507D5206B0221B0
:100AF000014321632046FFF777FF2068016D204600
:100B000000F0C6F8B0BDC046FFFEFFFFF0B585B0EF
:100B1000002827D00446C06A002806D128200021DA
:100B200021542163204600F08DF825462C352046BF
:100B3000FFF75CFCE36A1021E26A002814D10B4045
:100B4000002B11D138480240901CE062E368581E27
:100B500042424241012006020496B342029106D16C
:100B60001A4605E001205AE00A43012056E012022D
:100B70006668A7681643216A3943277C7A000A43CE
:100B8000217E01910129039509D1002F09D0E16A45
:100B900020270F43E762216B01270F432763374666
:100BA00007E0E1694903214FC9190E430121CF0232
:100BB0003743266871681E4D0D403D437560B1682E
:100BC0001C4D0D401543B560012B05D004998B4297
:100BD00002D00199012924D161690905164BCB186E
:100BE0000F210905356B8D431D433563B168134BE8
:100BF0000B40934208D100202063E16A01220A439E
:100C000002218A43039D09E0E16A029A114302220C
:100C10009143E162226B0243303425462A6005B0DD
:100C2000F0BD0023DCE7C046FDEEFFFF00E0FFFF64
:100C3000FF16FFFCFDF7E1FF0000F0FFFE0E1FF1C5
:100C400070470000B0B586B00024059404940F48A6
:100C50000168012211430160006810400090009873
:100C6000039403200290102001900520000701A9A1
:100C700000F06AF80C2528462146224600F09AF931
:100C8000284600F08BF906B0B0BDC04634100240D3
:100C90007047000070B504462820205C012801D16F
:100CA000022070BD26462836012535702046FFF704
:100CB000C1FB002802D00021317070BDE06A1849E4
:100CC000014028020818E0622903206842685205A2
:100CD00005D503221203E36A93430B43E362E36AFD
:100CE00000220B42114602D0216B06239943216357
:100CF0003270016D0221C94301604168094A0A430B
:100D0000426007214A04836813408168934202D1FC
:100D10000522120500E02A0511438160002070BD04
:100D2000FEF8FFFF20000020B0B5044600F0E4F814
:100D30000546601C02D08D484068041900F0DCF8BC
:100D4000401BA042FAD3B0BDF0B589B00F465A4956
:100D5000884201D0032100E00221009100252A46AB
:100D600007952E4602979FE001240494B440234047
:100D70000693002B00D191E00896039205957B68BD
:100D800010211943122910D13D461C21079A114008
:100D90000F228A40089BDE08B6008619376A9743FF
:100DA0002A698A403A4332626B6803263146059DC0
:100DB000A94007688F431A4601963240AA403A4339
:100DC00006460260C943122B15D8049A9A403D4842
:100DD000024210D03046B2680A40029DEF68059D7D
:100DE000AF401743B760DA06D20F089FBA40776862
:100DF000A74317437760F2680A40029F3046B968FC
:100E0000A9401143F160D900039A089E46D51821E4
:100E100011400F238B403246019CA243274CA2185D
:100E2000146E9C43603205231B07984205D0264B65
:100E30009842009E02D1049E00E000268E40264388
:100E400016601F4909687A68D30302D5069B1943C7
:100E500001E0069B9943089E194B1960596893035A
:100E600002D5069B194301E0069B9943144B596038
:100E700012490968D30202D5069B194301E0069B7B
:100E800099430E4B19605968920202D5069A114394
:100E900001E0069A9143094A5160039AAD1C083259
:100EA0000799091D0791761C3B681946F14000D04F
:100EB0005AE709B0F0BDC0460008005000180240D3
:100EC0008018024006000600000400500069084037
:100ED000002800D00120704742690A4201D0282230
:100EE00000E0182281507047002A01D0182200E04B
:100EF0002822815070470000054800687047C046AE
:100F00001A48406802490A68101808607047C046CD
:100F10006000002080B5032000F008F8002801D010
:100F2000012080BD00F026F8002080BD70B50F4E76
:100F300071680124002916D005467D20C000FFF706
:100F4000D7F801460A480068FFF7D2F800F0F6FC2F
:100F5000032D08D8002806D10024E0432946224664
:100F600000F028F83560204670BDC046080000201B
:100F70001000002082B0A648416801221143416060
:100F80004168114001910199110702680A4302600A
:100F9000006808400090009802B07047002805DB08
:100FA0001F21084001218140014801607047C0466F
:100FB00000E100E080B500F0C9FF80BDF8B5014652
:100FC000002001293CD002293FD0202925D0012230
:100FD0005602B1424FD09303994223D05404A14208
:100FE00064D1032000023C4DEB6D00900340296E5C
:100FF0000227D003B34202D13940002956D1E96D0E
:101000001202934202D1394000294FD12868204072
:10101000002800D03148009942E02F494A6D9205DE
:1010200017D441E02C4800684002800F012845D0C9
:10103000022847D003284BD100F0AEF9C00835E0B4
:1010400025494A6D120604D42EE023494A6DD20583
:101050002AD50A6E920702D5CA6D920128D5CA6DAB
:10106000920723D5CA6D920120D50120C203C86D15
:10107000400A10401AE003208104F54C636D0B40D8
:10108000002B11D0266E0225D0039204934202D188
:101090002E40002E0AD1E26D2A40002A00D11046CF
:1010A0008B4203D0002001E000F076F901B0F0BDE2
:1010B000CA6DD201D3D50120C003F7E700F06CF967
:1010C0008008F3E700F068F90621FFF711F8EDE773
:1010D00000F062F94008E9E7001002406CDC020011
:1010E000F0B585B0034680788007494F5DD5012271
:1010F00011073868C00003930091019202D50020C7
:10110000029007E038680843386038680840049067
:10111000049802923F4E3068C00511D40198040231
:10112000306820433060FFF7E7FE05463068204214
:1011300006D1FFF7E1FE401B0228F7D9032563E043
:1011400003252802396A0140002920D0039A5269F8
:10115000024091421BD0386A019909043A6A0A4355
:101160003A623A6A8A433A6201462B4A114039622E
:10117000C0070CD0FFF7C0FE0646844C386A8007D3
:1011800005D4FFF7B9FE801BA042F7D93CE0386ACE
:1011900021490840039B596901433962029800289C
:1011A00003D038680099884338601868C10705D0B3
:1011B000B969802291435A680A43BA61810706D50A
:1011C00001210902BA698A4399681143B96181060C
:1011D00006D501214902BA698A43D9681143B96128
:1011E000810506D503218904BA698A431969114327
:1011F000B9610025400407D5032040053C3F39680C
:101200008143986908433860284605B0F0BDC04660
:101210003C10024000700040FFFCFFFFFEB50126BD
:10122000002800D1ADE00D460196029056480068B6
:10123000032100910840A84215D253480146006896
:101240000326B04328430860504CFFF755FE07467D
:101250004D4800683040A84205D0FFF74DFEC01B46
:10126000A042F5D98DE0029F38688107524B0DD519
:10127000410704D5072109031A680A431A600F21A0
:1012800009021A688A43B96811431960C0071AD164
:101290003D48006803263040A8422AD93A48014612
:1012A0000068B04328430860384CFFF725FE074626
:1012B000354800683040A8421BD0FFF71DFEC01B18
:1012C000A042F5D95DE0786804283DD8810001A2EC
:1012D00051588F46E9120008351300083F130008E3
:1012E000491300084D1300081946083909684905D3
:1012F0002EE0029A1078400708D5072000032E49F7
:101300000B4609688143D0680843186000F058F81C
:101310002949096889093C220A401D4989581F2228
:101320000A40D040234908601A480068FFF7FEFDD4
:10133000064626E0194608390968890308E0194677
:1013400008390968890103E0996D00E0596D890742
:10135000019E16D5196807229143014319600B4C71
:10136000FFF7CAFD06461448006838210140786836
:10137000C00081428CD0FFF7BFFD801BA042F2D994
:10138000009E304603B0F0BD0020024088130000EC
:10139000142400080800002006480068064909686F
:1013A000890A1C220A40054989581F220A40D04058
:1013B0007047C04610000020081002405424000866
:1013C00010B5234988688006400F07D08868382305
:1013D0001840204A08280FD1104610BD0A684868F6
:1013E0000004400F042800D9002080001E4908583E
:1013F0009104490FC84010BD8868184010280DD1CD
:10140000C86803230340C8680C24044012A0005994
:10141000022B0FD0032B18D1504310BD8A681A40FD
:101420000120C003202A04D089681940182900D05F
:10143000002010BD49680904490F042900D9002182
:101440008900094A5158484310BD0849484310BD16
:101450000010024000366E01020000000300000090
:1014600002000000020000000024000800093D0006
:10147000F0B587B00125002800D102E2049505905F
:101480000078C007FD4B26D105980078800754D41A
:10149000059800780007FC4A00D582E0059B187883
:1014A000400700D594E0586A002800D1E8E1F64BE7
:1014B000996838220A40102A00D0D3E0012800D1D0
:1014C00093E0D868032101400598806A8142049D19
:1014D00000D1D5E1D5E19868D96803252A468A4329
:1014E00038210140102048408218504250410829BC
:1014F00065D0002863D105984768002F00D1D4E05B
:101500008068002871D0E04C2169A9430143216122
:10151000012211048F4208D0206805231B049F423A
:1015200000D0C4E09204104320602068084320608B
:10153000FFF7E2FC06462746C8E0F6480146806809
:101540003827074010207840C96803242140022230
:101550004A40811848424841002F48D0002846D1CF
:101560002746059B5A6901208602EA4C2168002A19
:1015700000D1D8E00722D20291439A690A4322603F
:101580000002216801432160FFF7B6FC0546206890
:10159000304200D0D9E0FFF7AFFC401B0228F6D95B
:1015A000D1E0906838210140182943D1106E80079E
:1015B00000D473E70598006A002816D06EE7186813
:1015C000800300D460E70598406800280DD05BE7F1
:1015D00090683821014020295CD1D06D800700D46B
:1015E00061E7D868002800D05DE7049D49E1012546
:1015F000C84800684005059B03D55869002800D1FC
:101600003FE10394AC02C448401CC2490A46496801
:101610000140D86908435060FFF76EFC0646BD489C
:10162000006820425ED1FFF767FC801B0228F6D9D4
:10163000039D26E10598016A106E002900D19FE004
:10164000012108431066FFF757FC0646B14A106EA9
:10165000800700D522E7FFF74FFC801B03250228F7
:10166000F4D90EE1012214061968A1431960570646
:10167000022873D10492FFF73FFC0646A548006894
:10168000384200D1C8E0FFF737FC801B0325022851
:10169000F4D9F6E001231907D06BC0000191039340
:1016A00000D48BE00020029090E09A4C2068012248
:1016B00011048843206003929004216881432160D3
:1016C000FFF71AFC0646002F27466BD00120440482
:1016D0003868204200D0D7E6FFF70EFC801BC828F0
:1016E000F6D9CEE0002F16D10720C00289490C465A
:1016F000096881430598806908432060FFF760FE10
:10170000A16889093C220A40844989581F220A405D
:10171000D0408349086083480068FFF707FC002831
:1017200000D0AEE0B4E6000281432160FFF7E4FBA5
:1017300005462068304200D1AAE6FFF7DDFB401BDA
:101740000228744CF5D93D469BE07348401C616803
:1017500001400598C0690843606099E6D868032590
:10176000A843D860FFF7C8FB04466A4800683842BF
:1017700000D185E0FFF7C0FB001B0228F5D980E00F
:10178000012188431066FFF7B7FB0646614A106ED9
:10179000800700D482E6FFF7AFFB801B03250228F9
:1017A000F4D96EE0039844043868204200D16BE617
:1017B000FFF7A2FB801BC828F6D962E0D06B084374
:1017C000D063D06B0840069006980293564F386855
:1017D000C00511D403980402386820433860FFF72D
:1017E0008BFB06463868204206D1FFF785FB801B3D
:1017F00003250228F6D944E00598C5684B4C002D16
:1018000006D000698103890F40D0424B039E40E01F
:10181000404BD86D039E51E00598816AC06A022949
:1018200010D103220346934341A2D258394B5B683F
:10183000DB0A25461C241C403F4B1B592C46934277
:10184000049D1ED3334BDA680325AA430A43DA60AA
:10185000D9680C2291430143D9601868204318606D
:10186000FFF74AFB04462B480068384208D1FFF7CF
:1018700043FB001B0228F6D903E0C04600100240DB
:101880000025284607B0F0BD00100240039E7004FA
:10189000204B032109041A698A4302431A61012D6E
:1018A00005D0D86D052D09D104210843D865D86D20
:1018B0003043D865FFF720FB06460AE0B043D86501
:1018C000D86D04218843D865FFF716FB0646002D26
:1018D0000AD01049C86D800711D4FFF70DFB801B9B
:1018E0000325A042F5D9CCE70A49C86D800706D583
:1018F000FFF702FB801B0325A042F5D9C1E7029840
:101900000028059B00D1CEE5C86B019A9043C863BF
:10191000C9E5C04600100240FFFFFEFF1424000886
:101920001000002008000020007000408813000014
:10193000001BB7000024F40074240008401E010EB0
:1019400001D0012070470749074A506007480368E3
:101950000B4003218907591801600020906007217E
:1019600011607047FFFFFF0010E000E020ED00E095
:10197000F8B505463C20285C012801D102205AE038
:101980000C462E463C36012333703D20022129545B
:10199000CA412F463D37032A4AD800937A44127928
:1019A00052009744011020312868214600F0EAF9DE
:1019B0002868816908220A4382618169042291436F
:1019C000816118301DE02868214600F01BFA009B59
:1019D000D902286882690A438261990282698A432E
:1019E000826118301FE02868214600F041FA28681B
:1019F000C16908220A43C261C16904229143C161DD
:101A00001C302169009B10E02868214600F070FA24
:101A1000009BD9022868C2690A43C2619902C2695F
:101A20008A43C2611C302169090202680A430260CC
:101A30003B700020307001B0F0BDB0B5002816D06A
:101A400004463D20205C25463D35002805D13C203C
:101A500000212154204600F00CF80220287001CC0F
:101A6000214600F04BF9012028700020B0BD012074
:101A7000B0BD7047B0B5054600680124224600F0AD
:101A800073F92868DE4941180A22D141072908D88C
:101A900022468A40E1210A4203D0E103426C0A4314
:101AA0004264816807220A40062A02D00168214365
:101AB00001600020B0BDC046B0B5044600680022F9
:101AC00000F052F92068CE4943180A21CB4112494F
:101AD000072B10D8012215469D40E1231D420AD054
:101AE000036A0B4207D1036A0C4D2B4203D1D20388
:101AF000436C93434364026A0A4207D1016A074A6E
:101B0000114203D101680122914301603D2001216E
:101B100021540020B0BDC046111100004404000053
:101B2000FEE70000F0B587B01F480168022201926D
:101B30001143016000681040029002980020059057
:101B400004900125039506903F2000010290514822
:101B500002A9FFF7F9F828200090144988470327C5
:101B6000134C3846A047052630461049884738466A
:101B7000A04730460D4EB0473846A0472846374666
:101B8000B047019E3046A0472846B847094C009808
:101B9000A0470C20A0470620A0472846A047304673
:101BA000B84707B0F0BDC04634100240290D000808
:101BB000ED1B0008451C000810B5044602E000F0CB
:101BC00055F8641C20780028F9D110BD10B586B0F6
:101BD000024601AC04A1204600F040FB2046FFF77E
:101BE000EBFF06B010BDC04625640000F8B5064600
:101BF000012402462240274D8021114F2846B84734
:101C0000B007C20F40212846B8477007C20F2021F5
:101C10002846B8473007C20F10212846B847260289
:101C2000284631462246B8472046FFF77DF8002275
:101C300028463146B8472046FFF776F8F8BDC0463B
:101C4000E90E000810B504460120410211480022A7
:101C5000FFF74AF92009FFF7C9FF0F20044020468B
:101C6000FFF7C4FF0220FFF75FF810BD10B5044670
:101C7000012251020748FFF737F92009FFF7B6FFA5
:101C80000F2004402046FFF7B1FF0220FFF74CF879
:101C900010BDC0460004005080B5002800D040317F
:101CA00080200843C0B2FFF7CDFF80BD80B5002281
:101CB000FFF71AF980BD70477047704780B5FFF78E
:101CC0001FF980BD7F204106084802680A40084984
:101CD00009681143074A126812040A4301214B03A1
:101CE00013430360C80604490860704704100240AB
:101CF0000832FF1F4833FF1F08ED00E010B50368EE
:101D0000174A90420BD0174CA0420DD0754CA04200
:101D10000AD0754CA04207D0704CA0420AD1702462
:101D2000A3434C681C4300E01C4603231B029C4356
:101D3000CB6823438024A3434C691C4304608B6815
:101D4000C3620B68836201239C07A04204D0634CEA
:101D5000A04201D0904201D109690163436110BDE5
:101D6000000400400020004010B51F230B4001215B
:101D70009940046A8C4304629A40016A11430162EB
:101D800010BD0000F8B5026A0124A2430262056A90
:101D900002229543436882698F682F437325AA43C3
:101DA0000E684E4DA84205D04E4DA84202D04E4D71
:101DB000A8420AD10C25AF43CD68009333460426D0
:101DC000B5431E46009B3D4300E03D4632435E4E18
:101DD00086190A27FE41072E10D8B440E126344266
:101DE0000CD003242402A3434C698E691C43344362
:101DF00044608261496841630562F8BD1C46F7E7AB
:101E000000D4FEBF70B5026A10239A430262046ACE
:101E100020229443436885698A681201224373240F
:101E20002402A5430C6824022C432C4DA84209D05F
:101E30002B4DA8420DD02B4DA8420AD02A4DA842C6
:101E400007D00FE0C025AA43CD682D014026B54339
:101E50002A430325AD02AB434D698E69AD001D4396
:101E6000B3002B434360846149688163026270BDA3
:101E700070B501242202036A93430362056A426833
:101E8000C66973239E430B6833436402A5438C6881
:101E900024022C43114DA84209D0114DA8420ED066
:101EA000104DA8420BD0104DA84208D010E00325D9
:101EB000AD02AC43CD682D020C4E2E4034430325B9
:101EC0002D03AA434D698E692D01154332012A4322
:101ED0004260C3614968C163046270BD002C014067
:101EE00000400140004801400044014000FBFFFF6A
:101EF000F0B501231A03046A944304625A03056A85
:101F000095434468C6698A6812032A4373252D02E3
:101F1000AE430D682D0235430B4E86190A27FE414C
:101F2000072E0FD81F46B740E12637420AD09B0341
:101F30009C434B699B0123434360C561496801642D
:101F40000262F0BD2346F7E700D4FEBF002805DBA0
:101F50000322034693430C4A9A1806E00F220240DC
:101F6000083A03239A43074BD2188007C00E890111
:101F7000C9B28140FF238340106898430843106032
:101F80007047C0461CED00E000E400E082B0FEF7C0
:101F9000C1FFFEF767FBFEF78DFAFEF7BFFB0520DA
:101FA00004073D212046FEF707FBC021019420468F
:101FB000FEF7C0FA0125E8020090411C7B4C204648
:101FC000FEF7B8FA02210322002720463B46FEF71F
:101FD000D3FAFFF7A7FD38463946FFF75DFE74A038
:101FE000FFF7EAFD28463946FFF756FE74A0FFF7D3
:101FF000E3FD784C784DFEF77FFF2E4605463046D0
:102000001430FEF747FEB068281AC92844D33C466E
:10201000664E012730463946FEF7C4FB00281FD024
:1020200030460099FEF7BEFB002826D08021019D96
:102030002846FEF7B7FB002800D1ACE04021284637
:10204000FEF7B0FB00282746624C25D10120394617
:10205000FFF722FE61A0FFF7AFFD644847801BE059
:10206000274662480446077001203946FFF714FEF0
:1020700068A0FFF7A1FD67800BE05C48064607708B
:10208000384627462146FFF707FE5DA0FFF794FD7F
:102090007480514885604F4C544E7088411C71804B
:1020A000A0424D4D54D1B780A888E9680818E8606F
:1020B0002978491C2970C9B2642948D36421FEF7E4
:1020C00017F881B249097D247C2900D96001B080CC
:1020D00038463946FFF7E0FD53A0554DA847B08874
:1020E0005449884754A0A84701203946FFF7D4FD3A
:1020F00053A0A847B088FEF702F9E105FEF779F88A
:102100000546514C2146FEF7B1F8FEF7FFF80646AA
:10211000484988474DA0464988470A2046433046EB
:10212000FEF7E2F801462846FEF75BF82146FEF787
:1021300060F8FEF7EBF83F49884745A03C498847DF
:10214000254D2F70EF60FEF759FA284E214C748010
:10215000FEF7D2FEA978491CA9703178002903D175
:1021600071883D4A914211D82969411AFA2900D251
:1021700041E728616878414241416970002800D0F8
:1021800039E720210198FEF7A7FE34E720210198C6
:10219000FFF78CFD2FE7012027462146FFF77CFD46
:1021A00013A0FFF709FD1148448074E700040050B4
:1021B000202020417373656D436F727020200000F2
:1021C00050757961204465764B6974203230323520
:1021D00000000000E7FD0000180000204275747444
:1021E0006F6E202D202020202020000000000020E5
:1021F000427574746F6E202B202020202020200038
:10220000427574746F6E2032202020202052554E6B
:1022100000000000427574746F6E20312020202071
:1022200053544F5000000000414443203A20000026
:10223000B91B0008CD1B00082020202020202000F2
:1022400050574D203A202500000020412E0000006C
:1022500020202020202000004FC300000FB410B524
:1022600004A9074B02AA039800F01CF8044602A92F
:10227000002000F0BFF8204610BC08BC04B018478E
:10228000F523000802E008C8121F08C1002AFAD18D
:1022900070477047002001E001C1121F002AFBD1E6
:1022A00070470000FFB58DB00446002506E02528E4
:1022B0000AD0109A0F999047641C6D1C2078002852
:1022C000F5D1284611B0F0BD00270121484A0097FA
:1022D00000E00743641C23780846203B98401042E6
:1022E000F7D120782E2817D1042007436078641C8A
:1022F0002A280CD10E98641C02C800910E900BE0A5
:1023000000990A22514330394018641C009020780B
:10231000014630390929F3D920780028D1D0642822
:1023200008D0692806D075281ED0109A0F999047BA
:102330006D1C5BE00A200E99019001C90E910028E6
:1023400002DA40422D2102E0390504D52B216A46EC
:102350001172012103E0F90704D02021F7E70BAE49
:102360000B910DE00021FAE70A200E99019001C9B6
:102370000E91F7E70199FDF7BBFE3031761E317003
:102380000028F7D103A8801B20300190780701D5E1
:10239000009801E0012000900199884201DD401A77
:1023A00000E000200027009006E002A8109AC05D1F
:1023B0000F9990476D1C7F1C0B988742F5DB04E05A
:1023C000109A30200F9990476D1C0099481E00907C
:1023D0000029F5DC05E03078109A761C0F999047BB
:1023E0006D1C0199481E01900029F4DC641C65E70E
:1023F000092801000A68531C0B6010707047000028
:1024000000093D0000127A000024F40040865101CA
:1024100000366E0100000000000000000000000017
:1024200000000000000000000000000000000000AC
:102430000000000001000000020000000300000096
:102440000400000006000000070000000800000073
:102450000900000000000000000000000000000073
:102460000000000001000000020000000300000066
:102470000400000000093D0000127A000024F4006E
:102480004086510100366E0100093D0000093D0003
:1024900000093D00B82400080000002018000000DA
:1024A00084220008D02400081800002050020000F8
:1024B00094220008000000000100409CF40100008C
:1024C000040000000100000000127A00000000007B
:04000005080000C12E
:00000001FF
