:020000040800F2
:1000000068020020D50000083F170008AD15000861
:1000100000000000000000000000000000000000E0
:10002000000000000000000000000000431700086E
:1000300000000000000000004117000845170008FC
:10004000E7000008E7000008E7000008E7000008F4
:10005000E7000008E7000008E7000008E7000008E4
:10006000E7000008E7000008E7000008E7000008D4
:1000700065010008E7000008E7000008E700000845
:10008000E7000008E7000008E7000008E7000008B4
:10009000E7000008E7000008E7000008E7000008A4
:1000A000E7000008E7000008E7000008E700000894
:1000B000E7000008E7000008000000000000000062
:1000C0000348854600F03CF800480047C517000883
:1000D000680200200448804704480047FEE7FEE726
:1000E000FEE7FEE7FEE7FEE74D170008C100000847
:1000F00030B50B46014600202022012409E00D46C0
:10010000D5409D4205D31D469540491B2546954047
:1001100040191546521E002DF1DC30BDD2B201E06F
:100120000270401C491EFBD270470022F6E710B552
:1001300013460A4604461946FFF7F0FF204610BD55
:10014000064C0125064E05E0E36807CC2B430C3C2A
:1001500098471034B442F7D3FFF7B6FF501C00089D
:10016000701C000880B5024800F05EFA80BDC046F1
:1001700030000020F8B50446006881680027C907F0
:1001800017D081680125A943816000F0D3FC0646A1
:1001900020688068C0070CD000F0CCFC801B0328CE
:1001A000F6D3E06A10210143E162206B284320630B
:1001B00000E03D46284601B0F0BD0000FEB5044613
:1001C0000027029700688168C9072FD1816801253F
:1001D0002943816010210191C94301600831016008
:1001E000BA4800681349FFF783FF14214143029185
:1001F00002E00298401E029002980028F9D100F017
:1002000099FC064620688068C0070FD100F092FC78
:10021000801B0328F6D3282000212154E06A01998D
:100220000843E062206B2843206300E03D462846F7
:1002300003B0F0BD40420F00B0B58AB06C46201D3F
:100240001421FFF772FF0125680218490A6802436A
:100250000A60096801400791079868050690A8039D
:100260000090204600F05AFD2820ED4C002121543A
:10027000302021540E48A061E161216261620720B3
:1002800040046563A063E5621834204600F05CFA20
:100290000420099008950920079007A9204600F03E
:1002A00019F9204600F0A2F80AB0B0BD4010024093
:1002B0000024014010B586B005221207904206D0F6
:1002C0002E4A90420CD12E4A1368022402E02C4A96
:1002D0001368012423431360126822400192019A9B
:1002E000002205920492022301AC0EC401A900F081
:1002F00049FB06B010BDC04670B586B00524240782
:10030000A04206D01D4CA0420CD11D4C25680226EF
:1003100002E01B4C256801263543256024683440E3
:100320000194019C0024059401AD1EC501A900F0B3
:1003300029FB06B070BDC04610B586B00522120775
:10034000904206D00D4A90420CD10D4A1368022407
:1003500002E00B4A13680124234313601268224011
:100360000192019A002204920392012302930191C7
:10037000059201A900F006FB06B010BD0004005074
:1003800034100240B0B590B004AD284608302821A2
:10039000FFF7CBFE00240A940120010209910F21EE
:1003A00004910C4909680C9405940D9007940A482F
:1003B0000140401C08430B90284600F077FE039450
:1003C00002940194072000906846214600F044FD05
:1003D00010B0B0BD0832FF1FFF1F000080B500F055
:1003E00093FB411E4842484180BD0000F0B585B0F6
:1003F0000446002604962820205C012801D102250D
:100400005EE0204628300127039007702046FFF762
:10041000B1FE0546002801D0039950E00296E06A3B
:1004200029490140881CE062784806680197B803B2
:1004300000F0E2FB01463046FFF75AFE400001E0C3
:100440000498401E049004980028F9D11220C24359
:10045000206881681027C90712D10092816808229C
:100460000A43826000F066FB06462068816809073F
:1004700008D500F05FFB801B0A28F6D9019D12E029
:10048000019D16E0816804220A43826000F052FB5D
:10049000064620688068400708D500F04BFB801BAB
:1004A0000B28F6D30125029E009A03E0009A0F3232
:1004B0000127029E0399E06A10403843E0620E7003
:1004C000284605B0F0BDC046FDEEFFFF100000203D
:1004D00070470000F0B585B0002304932822825CA9
:1004E000012A01D102216FE004462834012626703A
:1004F0004A68062A0393029401960DD805235343B4
:100500005A1F0568AF6B0B681E4696401F24944027
:10051000A7432A46383219E00568052454430C2ABB
:100520000AD8233C6F6B0B681E46A6401F22A240D0
:1005300097432A46343209E0413C2F6B0B681E4634
:10054000A6401F22A24097432A4630323743176005
:10055000142B0BD3032058433C38EA688968814048
:10056000072383409A430A43EA6029E0092B1DD9F7
:1005700003225A431E3A2C69896891400726964007
:10058000B4430C432C611946019FB9431029039CC5
:100590002146029E17D11C4A114608398D4216D0B9
:1005A000C16A20220A43C26239460CE00320584344
:1005B000072282406B6993438968814019436961CE
:1005C000039C2146029E3470084605B0F0BD1068B9
:1005D00000022146F7D40120C005116801431160D3
:1005E000102B2146EFD1094800680949FFF780FD2B
:1005F0000A214143049102E00498401E04900498AB
:100600000028F9D12146DEE708240140100000202F
:1006100040420F000068006D014908817047C046E4
:100620001800002070470000B0B50446006841681B
:10063000890628D50168890725D5E16AC90604D449
:1006400001214902E26A0A43E26207214904826801
:100650000A403C4D8A4210D1217C00290DD14168CD
:10066000202291434160E06A2840E062E06AC004D1
:1006700003D4E06A01210143E1622046FFF7CAFF8B
:10068000EE35206805604168090632D501684907E2
:100690002FD5E16AC90604D401214903E26A0A435D
:1006A000E26207210A038368134093420FD1416835
:1006B00080229143416001200103E26A8A43E262A1
:1006C000E16AC9050ED4E16A0143E1620AE04268C9
:1006D000520507D4490482680A408A4202D1217C2B
:1006E0000029E4D02046FFF7F3FE1649F4312068D4
:1006F0000160416849060ED50168C9070BD0012089
:100700000004E16A0143E162204600F0B7F80D49B8
:10071000FF31206801600168890611D541688900B0
:100720000ED58168C90507D5206B022101432163DD
:100730002046FFF777FF2068016D204600F0C6F8DD
:10074000B0BDC046FFFEFFFFF0B585B0002827D042
:100750000446C06A002806D12820002121542163C4
:10076000204600F08DF825462C352046FFF702FD87
:10077000E36A1021E26A002814D10B40002B11D14A
:1007800038480240901CE062E368581E42424241F1
:10079000012006020496B342029106D11A4605E0F2
:1007A00001205AE00A43012056E012026668A76859
:1007B0001643216A3943277C7A000A43217E01913E
:1007C0000129039509D1002F09D0E16A20270F43A1
:1007D000E762216B01270F432763374607E0E16992
:1007E0004903214FC9190E430121CF02374326681F
:1007F00071681E4D0D403D437560B1681C4D0D4044
:100800001543B560012B05D004998B4202D00199A4
:10081000012924D161690905164BCB180F2109055F
:10082000356B8D431D433563B168134B0B409342C9
:1008300008D100202063E16A01220A4302218A4391
:10084000039D09E0E16A029A114302229143E162A9
:10085000226B0243303425462A6005B0F0BD0023E8
:10086000DCE7C046FDEEFFFF00E0FFFFFF16FFFCE8
:10087000FDF7E1FF0000F0FFFE0E1FF170470000E2
:10088000B0B586B00024059404940F480168012295
:100890001143016000681040009000980394032009
:1008A0000290102001900520000701A900F06AF8CD
:1008B0000C2528462146224600F09AF9284600F0E9
:1008C0008BF906B0B0BDC04634100240704700003E
:1008D00070B504462820205C012801D1022070BD9B
:1008E00026462836012535702046FFF767FC00288C
:1008F00002D00021317070BDE06A18490140280221
:100900000818E062290320684268520505D50322D1
:100910001203E36A93430B43E362E36A00220B4250
:10092000114602D0216B0623994321633270016D79
:100930000221C94301604168094A0A434260072114
:100940004A04836813408168934202D1052212054C
:1009500000E02A0511438160002070BDFEF8FFFF12
:1009600020000020B0B5044600F0E4F80546601C05
:1009700002D08D484068041900F0DCF8401BA0420A
:10098000FAD3B0BDF0B589B00F465A49884201D0BC
:10099000032100E00221009100252A4607952E46FA
:1009A00002979FE001240494B44023400693002B57
:1009B00000D191E00896039205957B6810211943B8
:1009C000122910D13D461C21079A11400F228A405E
:1009D000089BDE08B6008619376A97432A698A4061
:1009E0003A4332626B6803263146059DA940076889
:1009F0008F431A4601963240AA403A4306460260A7
:100A0000C943122B15D8049A9A403D48024210D08F
:100A10003046B2680A40029DEF68059DAF4017431B
:100A2000B760DA06D20F089FBA407768A74317432A
:100A30007760F2680A40029F3046B968A9401143C6
:100A4000F160D900039A089E46D5182111400F2362
:100A50008B403246019CA243274CA218146E9C4343
:100A6000603205231B07984205D0264B9842009E12
:100A700002D1049E00E000268E40264316601F49E6
:100A800009687A68D30302D5069B194301E0069BE7
:100A90009943089E194B19605968930302D5069B28
:100AA000194301E0069B9943144B596012490968A8
:100AB000D30202D5069B194301E0069B99430E4BD6
:100AC00019605968920202D5069A114301E0069A0C
:100AD0009143094A5160039AAD1C08320799091DD8
:100AE0000791761C3B681946F14000D05AE709B0DF
:100AF000F0BDC046000800500018024080180240B7
:100B0000060006000004005000690840002800D0DC
:100B10000120704742690A4201D0282200E01822D1
:100B200081507047002A01D0182200E0282281500D
:100B300070470000054800687047C0461A48406882
:100B400002490A68101808607047C0466400002017
:100B500080B5032000F008F8002801D0012080BDF6
:100B600000F026F8002080BD70B50F4E716801249A
:100B7000002916D005467D20C000FFF7B9FA0146CE
:100B80000A480068FFF7B4FA00F0F6FC032D08D815
:100B9000002806D10024E0432946224600F028F828
:100BA0003560204670BDC0460800002010000020BF
:100BB00082B0A6484168012211434160416811405A
:100BC00001910199110702680A4302600068084018
:100BD0000090009802B07047002805DB1F210840F4
:100BE00001218140014801607047C04600E100E0FA
:100BF00080B500F0C7FD80BDF8B501460020012991
:100C00003CD002293FD0202925D001225602B142F2
:100C10004FD09303994223D05404A14264D10320BE
:100C200000023C4DEB6D00900340296E0227D0037B
:100C3000B34202D13940002956D1E96D12029342E4
:100C400002D1394000294FD128682040002800D027
:100C50003148009942E02F494A6D920517D441E08E
:100C60002C4800684002800F012845D0022847D058
:100C700003284BD100F0AEF9C00835E025494A6D94
:100C8000120604D42EE023494A6DD2052AD50A6EF5
:100C9000920702D5CA6D920128D5CA6D920723D555
:100CA000CA6D920120D50120C203C86D400A1040D0
:100CB0001AE003208104F54C636D0B40002B11D02A
:100CC000266E0225D0039204934202D12E40002EBC
:100CD0000AD1E26D2A40002A00D110468B4203D08F
:100CE000002001E000F076F901B0F0BDCA6DD2013C
:100CF000D3D50120C003F7E700F06CF98008F3E7D3
:100D000000F068F90621FFF7F3F9EDE700F062F96A
:100D10004008E9E7001002406CDC0200F0B585B045
:100D2000034680788007494F5DD501221107386856
:100D3000C00003930091019202D50020029007E0C9
:100D40003868084338603868084004900498029274
:100D50003F4E3068C00511D401980402306820432A
:100D60003060FFF7E7FE05463068204206D1FFF706
:100D7000E1FE401B0228F7D9032563E00325280282
:100D8000396A0140002920D0039A526902409142F9
:100D90001BD0386A019909043A6A0A433A623A6AEE
:100DA0008A433A6201462B4A11403962C0070CD08F
:100DB000FFF7C0FE0646844C386A800705D4FFF76B
:100DC000B9FE801BA042F7D93CE0386A21490840AF
:100DD000039B5969014339620298002803D038689F
:100DE0000099884338601868C10705D0B969802226
:100DF00091435A680A43BA61810706D50121090265
:100E0000BA698A4399681143B961810606D50121FF
:100E10004902BA698A43D9681143B961810506D587
:100E200003218904BA698A4319691143B96100250C
:100E3000400407D5032040053C3F39688143986949
:100E400008433860284605B0F0BDC0463C1002405B
:100E500000700040FFFCFFFFFEB50126002800D116
:100E6000ADE00D46019602905648006803210091BE
:100E70000840A84215D25348014600680326B043F3
:100E800028430860504CFFF755FE07464D48006860
:100E90003040A84205D0FFF74DFEC01BA042F5D957
:100EA0008DE0029F38688107524B0DD5410704D56C
:100EB000072109031A680A431A600F2109021A68F8
:100EC0008A43B96811431960C0071AD13D480068C8
:100ED00003263040A8422AD93A4801460068B04368
:100EE00028430860384CFFF725FE07463548006860
:100EF0003040A8421BD0FFF71DFEC01BA042F5D911
:100F00005DE0786804283DD8810001A251588F46E1
:100F1000250F0008710F00087B0F0008850F0008DF
:100F2000890F000819460839096849052EE0029A18
:100F30001078400708D5072000032E490B460968A2
:100F40008143D0680843186000F058F829490968BF
:100F500089093C220A401D4989581F220A40D04075
:100F6000234908601A480068FFF7FEFD064626E0A0
:100F7000194608390968890308E0194608390968DB
:100F8000890103E0996D00E0596D8907019E16D52E
:100F9000196807229143014319600B4CFFF7CAFD02
:100FA000064614480068382101407868C000814234
:100FB0008CD0FFF7BFFD801BA042F2D9009E3046C7
:100FC00003B0F0BD0020024088130000C01B0008E1
:100FD000080000200648006806490968890A1C22A2
:100FE0000A40054989581F220A40D0407047C04630
:100FF0001000002008100240001C000810B5234912
:1010000088688006400F07D0886838231840204A37
:1010100008280FD1104610BD0A6848680004400F28
:10102000042800D9002080001E4908589104490F67
:10103000C84010BD8868184010280DD1C868032327
:101040000340C8680C24044012A00059022B0FD0A2
:10105000032B18D1504310BD8A681A400120C003E9
:10106000202A04D089681940182900D0002010BD1A
:1010700049680904490F042900D900218900094A57
:101080005158484310BD0849484310BD0010024064
:1010900000366E01020000000300000002000000A4
:1010A00002000000AC1B000800093D00F0B587B04D
:1010B0000125002800D102E2049505900078C007C0
:1010C000FD4B26D105980078800754D40598007808
:1010D0000007FC4A00D582E0059B1878400700D540
:1010E00094E0586A002800D1E8E1F64B996838226C
:1010F0000A40102A00D0D3E0012800D193E0D8683C
:10110000032101400598806A8142049D00D1D5E108
:10111000D5E19868D96803252A468A4338210140D9
:1011200010204840821850425041082965D00028BC
:1011300063D105984768002F00D1D4E0806800286B
:1011400071D0E04C2169A9430143216101221104BE
:101150008F4208D0206805231B049F4200D0C4E0C2
:10116000920410432060206808432060FFF7E2FCEF
:1011700006462746C8E0F6480146806838270740FB
:1011800010207840C9680324214002224A40811877
:1011900048424841002F48D0002846D12746059BA9
:1011A0005A6901208602EA4C2168002A00D1D8E061
:1011B0000722D20291439A690A4322600002216801
:1011C00001432160FFF7B6FC05462068304200D09D
:1011D000D9E0FFF7AFFC401B0228F6D9D1E09068B8
:1011E00038210140182943D1106E800700D473E7DD
:1011F0000598006A002816D06EE71868800300D4AE
:1012000060E70598406800280DD05BE790683821BA
:10121000014020295CD1D06D800700D461E7D868F7
:10122000002800D05DE7049D49E10125C848006819
:101230004005059B03D55869002800D13FE1039480
:10124000AC02C448401CC2490A4649680140D869FA
:1012500008435060FFF76EFC0646BD480068204218
:101260005ED1FFF767FC801B0228F6D9039D26E1BB
:101270000598016A106E002900D19FE00121084302
:101280001066FFF757FC0646B14A106E800700D57E
:1012900022E7FFF74FFC801B03250228F4D90EE15B
:1012A000012214061968A14319605706022873D158
:1012B0000492FFF73FFC0646A5480068384200D17B
:1012C000C8E0FFF737FC801B03250228F4D9F6E0BD
:1012D00001231907D06BC0000191039300D48BE068
:1012E0000020029090E09A4C20680122110488436B
:1012F000206003929004216881432160FFF71AFC6B
:101300000646002F27466BD001204404386820424F
:1013100000D0D7E6FFF70EFC801BC828F6D9CEE038
:10132000002F16D10720C00289490C460968814365
:101330000598806908432060FFF760FEA16889096D
:101340003C220A40844989581F220A40D0408349E0
:10135000086083480068FFF707FC002800D0AEE073
:10136000B4E6000281432160FFF7E4FB05462068F4
:10137000304200D1AAE6FFF7DDFB401B0228744C87
:10138000F5D93D469BE07348401C616801400598D3
:10139000C0690843606099E6D8680325A843D8600F
:1013A000FFF7C8FB04466A480068384200D185E070
:1013B000FFF7C0FB001B0228F5D980E0012188431C
:1013C0001066FFF7B7FB0646614A106E800700D42F
:1013D00082E6FFF7AFFB801B03250228F4D96EE0FD
:1013E000039844043868204200D16BE6FFF7A2FB63
:1013F000801BC828F6D962E0D06B0843D063D06B5D
:101400000840069006980293564F3868C00511D4DC
:1014100003980402386820433860FFF78BFB0646C8
:101420003868204206D1FFF785FB801B0325022880
:10143000F6D944E00598C5684B4C002D06D00069EC
:101440008103890F40D0424B039E40E0404BD86D52
:10145000039E51E00598816AC06A022910D10322D7
:101460000346934341A2D258394B5B68DB0A2546B9
:101470001C241C403F4B1B592C469342049D1ED3F9
:10148000334BDA680325AA430A43DA60D9680C2291
:1014900091430143D960186820431860FFF74AFB65
:1014A00004462B480068384208D1FFF743FB001B75
:1014B0000228F6D903E0C046001002400025284665
:1014C00007B0F0BD00100240039E7004204B0321C2
:1014D00009041A698A4302431A61012D05D0D86DA7
:1014E000052D09D104210843D865D86D3043D8654E
:1014F000FFF720FB06460AE0B043D865D86D04210B
:101500008843D865FFF716FB0646002D0AD0104920
:10151000C86D800711D4FFF70DFB801B0325A04287
:10152000F5D9CCE70A49C86D800706D5FFF702FB5D
:10153000801B0325A042F5D9C1E702980028059B2E
:1015400000D1CEE5C86B019A9043C863C9E5C04697
:1015500000100240FFFFFEFFC01B0008100000202B
:10156000080000200070004088130000001BB70036
:101570000024F400201C0008401E010E01D00120B0
:1015800070470749074A5060074803680B4003212A
:101590008907591801600020906007211160704789
:1015A000FFFFFF0010E000E020ED00E0FEE700009C
:1015B000F0B587B01F480168022201921143016013
:1015C00000681040029002980020059004900125C8
:1015D000039506903F2000010290ED4802A9FFF715
:1015E000D1F928200090144988470327134C384626
:1015F000A04705263046104988473846A047304660
:101600000D4EB0473846A04728463746B047019EA2
:101610003046A0472846B847094C0098A0470C2000
:10162000A0470620A0472846A0473046B84707B045
:10163000F0BDC04634100240650900087916000864
:10164000D116000810B5044602E000F055F8641CFD
:1016500020780028F9D110BD10B586B0024601AC43
:1016600004A1204600F0D0F92046FFF7EBFF06B0BA
:1016700010BDC04625640000F8B5064601240246A8
:101680002240C34D8021114F2846B847B007C20FF2
:1016900040212846B8477007C20F20212846B84786
:1016A0003007C20F10212846B84726022846314687
:1016B0002246B8472046FFF755F900222846314612
:1016C000B8472046FFF74EF9F8BDC046250B000885
:1016D00010B5044601204102AD480022FFF722FA6E
:1016E0002009FFF7C9FF0F2004402046FFF7C4FF81
:1016F0000220FFF737F910BD10B504460122510250
:10170000A348FFF70FFA2009FFF7B6FF0F200440A8
:101710002046FFF7B1FF0220FFF724F910BDC046B5
:1017200080B5002800D0403180200843C0B2FFF7C8
:10173000CFFF80BD80B50022FFF7F4F980BD704770
:101740007047704780B5FFF7F9F980BD7F204106EB
:10175000084802680A40084909681143074A1268A4
:1017600012040A4301214B0313430360C8060449D2
:1017700008607047041002400832FF1F4833FF1F03
:1017800008ED00E0002805DB0322034693430C4AE2
:101790009A1806E00F220240083A03239A43074BA7
:1017A000D2188007C00E8901C9B28140FF2383404F
:1017B00010689843084310607047C0461CED00E075
:1017C00000E400E084B0FFF7C3F9FEF7DBFDFEF7AD
:1017D00033FD052006073F213046FEF7ADFDC02151
:1017E0003046FEF767FD0125E8020190411C684F75
:1017F0003846FEF75FFD02210322002438462346C7
:10180000FEF77AFDFFF7D4FE20462146FFF788FF5A
:1018100060A0FFF717FF284602942146FFF780FFDC
:1018200060A0FFF70FFF654C0396FFF783F90546AD
:1018300020461830FFF74CF8E068281AC92845D32D
:10184000012638463146FEF7C9FD002829D0384622
:101850000199FEF7C3FD00282CD08021039F384654
:10186000FEF7BCFD002879D040213846FEF7B6FDD2
:101870000028474F2AD1524A16705068C1087C2967
:1018800001D80A3050600120029E3146FFF748FF20
:101890004C48FFF7D7FE4A484068FFF7DDFE4A484C
:1018A00010E0029E4648067001203146FFF738FFDF
:1018B0004BA007E0424806703046029E3146FFF7D3
:1018C0002FFF42A0FFF7BEFEA680E560A088411C66
:1018D000A18039498842039E1FD1208921690818B7
:1018E00020612178491C2170C9B2642913D3642175
:1018F000FEF7FEFBE0800120029D2946FFF710FF66
:101900003CA0FFF79FFEE088FFF7A6FE3CA0FFF794
:1019100099FE257025612848A080FFF70BF9A17872
:10192000491CA170264A1178002912D06169411A18
:101930005268914200D278E760616078414241414B
:101940006170002800D070E73F213046FFF7E2F8D1
:101950006BE73F213046FFF7EDFE66E7184A167049
:1019600050680B2801D30A3850600120029E31468E
:101970001746FFF7D5FE1348FFF764FE7868FFF7B8
:101980006BFE1148FFF75EFEA680E560004F9DE705
:1019900000040050202020417373656D436F727006
:1019A0002020000050757961204465764B697420D1
:1019B0003230323500000000E7FD00001800002042
:1019C00000000020471C0008401C00084275747489
:1019D0006F6E2032202020202052554E0000000043
:1019E000427574746F6E20312020202053544F5064
:1019F00000000000414443204156473A20000000C7
:101A000020202020200000000FB410B504A9074BAF
:101A100002AA039800F01CF8044602A9002000F076
:101A2000BFF8204610BC08BC04B01847A11B000832
:101A300002E008C8121F08C1002AFAD17047704797
:101A4000002001E001C1121F002AFBD170470000F5
:101A5000FFB58DB00446002506E025280AD0109A6F
:101A60000F999047641C6D1C20780028F5D12846FA
:101A700011B0F0BD00270121484A009700E007435C
:101A8000641C23780846203B98401042F7D1207808
:101A90002E2817D1042007436078641C2A280CD113
:101AA0000E98641C02C800910E900BE000990A2267
:101AB000514330394018641C009020780146303979
:101AC0000929F3D920780028D1D0642808D06928C2
:101AD00006D075281ED0109A0F9990476D1C5BE0B8
:101AE0000A200E99019001C90E91002802DA4042A5
:101AF0002D2102E0390504D52B216A4611720121FE
:101B000003E0F90704D02021F7E70BAE0B910DE0BD
:101B10000021FAE70A200E99019001C90E91F7E71A
:101B20000199FEF7E5FA3031761E31700028F7D1C1
:101B300003A8801B20300190780701D5009801E0B0
:101B4000012000900199884201DD401A00E0002048
:101B50000027009006E002A8109AC05D0F999047F8
:101B60006D1C7F1C0B988742F5DB04E0109A302037
:101B70000F9990476D1C0099481E00900029F5DCD4
:101B800005E03078109A761C0F9990476D1C0199EA
:101B9000481E01900029F4DC641C65E70928010057
:101BA0000A68531C0B6010707047000000093D006C
:101BB00000127A000024F4004086510100366E01C4
:101BC0000000000000000000000000000000000015
:101BD0000000000000000000000000000000000005
:101BE00001000000020000000300000004000000EB
:101BF00006000000070000000800000009000000C7
:101C000000000000000000000000000000000000D4
:101C100001000000020000000300000004000000BA
:101C200000093D0000127A000024F40040865101B2
:101C300000366E0100093D0000093D0000093D002D
:101C4000206D732020200053706565643A200000E9
:101C5000701C00080000002018000000301A000866
:101C6000881C00081800002050020000401A0008DC
:101C700001000000FA000000040000000100000064
:081C800000127A0000000000D0
:04000005080000C12E
:00000001FF
