:020000040800F2
:1000000028020020D5000008FB0500086104000854
:1000100000000000000000000000000000000000E0
:10002000000000000000000000000000FF050008C4
:100030000000000000000000FD05000801060008A7
:10004000E7000008E7000008E7000008E7000008F4
:10005000E7000008E7000008E7000008E7000008E4
:10006000E7000008E7000008E7000008E7000008D4
:10007000E7000008E7000008E7000008E7000008C4
:10008000E7000008E7000008E7000008E7000008B4
:10009000E7000008E7000008E7000008E7000008A4
:1000A000E7000008E7000008E7000008E700000894
:1000B000E7000008E7000008000000000000000062
:1000C0000348854600F02AF80048004781060008EA
:1000D000280200200448804704480047FEE7FEE766
:1000E000FEE7FEE7FEE7FEE709060008C10000089C
:1000F00030B50B46014600202022012409E00D46C0
:10010000D5409D4205D31D469540491B2546954047
:1001100040191546521E002DF1DC30BD064C01255C
:10012000064E05E0E36807CC2B430C3C984710349F
:10013000B442F7D3FFF7C8FF140A0008340A0008D6
:1001400010B586B005221207904206D0E74A9042C9
:100150000CD1E54A1368022402E0E34A1368012443
:1001600023431360126822400192019A00220592F3
:100170000492022301AC0EC401A900F03DF806B0C0
:1001800010BDC04610B586B005221207904206D0B9
:10019000D64A90420CD1D44A1368022402E0D24AD3
:1001A0001368012423431360126822400192019ACC
:1001B000002204920392012302930191059201A966
:1001C00000F01AF806B010BD80B500F0D5F8411E59
:1001D0004842484180BD0000B0B5044600F0E2F856
:1001E0000546601C02D08C484068041900F0DAF81B
:1001F000401BA042FAD3B0BDF0B589B00F465A49B2
:10020000884201D0032100E00221009100252A4606
:1002100007952E4602979FE001240494B4402340A2
:100220000693002B00D191E00896039205957B6818
:1002300010211943122910D13D461C21079A114063
:100240000F228A40089BDE08B6008619376A97435A
:100250002A698A403A4332626B6803263146059D1B
:10026000A94007688F431A4601963240AA403A4394
:1002700006460260C943122B15D8049A9A403D489D
:10028000024210D03046B2680A40029DEF68059DD8
:10029000AF401743B760DA06D20F089FBA407768BD
:1002A000A74317437760F2680A40029F3046B96857
:1002B000A9401143F160D900039A089E46D5182140
:1002C00011400F238B403246019CA243274CA218B9
:1002D000146E9C43603205231B07984205D0BE4B29
:1002E0009842009E02D1049E00E000268E402643E4
:1002F00016601F4909687A68D30302D5069B194323
:1003000001E0069B9943089E194B196059689303B5
:1003100002D5069B194301E0069B9943144B596093
:1003200012490968D30202D5069B194301E0069BD6
:1003300099430E4B19605968920202D5069A1143EF
:1003400001E0069A9143094A5160039AAD1C0832B4
:100350000799091D0791761C3B681946F14000D0AA
:100360005AE709B0F0BDC04600080050001802402E
:10037000801802400600060000690840002800D0EE
:100380000120704742690A4201D0282200E0182269
:1003900081507047002A01D0182200E028228150A5
:1003A00070470000054800687047C0461A4840681A
:1003B00002490A68101808607047C04624000020EF
:1003C00080B5032000F008F8002801D0012080BD8E
:1003D00000F026F8002080BD70B50F4E7168012432
:1003E000002916D005467D20C000FFF781FE01469A
:1003F0000A480068FFF77CFE00F018F8032D08D8C3
:10040000002806D10024E0432946224600F009F8DE
:100410003560204670BDC046080000201000002056
:10042000704780B500F00CF980BD0000401E010E41
:1004300001D0012070470749074A50600748036808
:100440000B400321890759180160002090600721A3
:1004500011607047FFFFFF0010E000E020ED00E0BA
:10046000FEE70000F0B587B01F4801680222019244
:10047000114301600068104002900298002005902E
:1004800004900125039506903F2000010290DB486F
:1004900002A9FFF7B1FE28200090154988470327DD
:1004A000144C3846A047052630461149884738463F
:1004B000A04730460E4EB0473846A047284637463C
:1004C000B047019E3046A0472846B8470A4C0098DE
:1004D000A0470C20A0470620A0472846A04730464A
:1004E000B84707B0F0BDC0463410024000040050C9
:1004F000D9010008310500088905000810B5044637
:1005000002E000F055F8641C20780028F9D110BDF5
:1005100010B586B0024601AC04A1204600F098F95F
:100520002046FFF7EBFF06B010BDC0462564000073
:10053000F8B50646012402462240B04D8021114FF5
:100540002846B847B007C20F40212846B847700771
:10055000C20F20212846B8473007C20F1021284675
:10056000B8472602284631462246B8472046FFF7BC
:1005700033FE002228463146B8472046FFF72CFEBE
:10058000F8BDC0469503000810B50446012041029D
:100590009A480022FFF7FEFE2009FFF7C9FF0F204F
:1005A00004402046FFF7C4FF0220FFF715FE10BDF0
:1005B00010B50446012251029048FFF7EBFE2009D6
:1005C000FFF7B6FF0F2004402046FFF7B1FF0220DF
:1005D000FFF702FE10BDC0460004005080B50028A1
:1005E00000D0403180200843C0B2FFF7CDFF80BD6E
:1005F00080B50022FFF7CEFE80BD70477047704780
:1006000080B5FFF7D3FE80BD7F2041060848026811
:100610000A40084909681143074A126812040A434C
:1006200001214B0313430360C80604490860704767
:10063000041002400832FF1F4833FF1F08ED00E09E
:10064000002805DB0322034693430C4A9A1806E070
:100650000F220240083A03239A43074BD21880071F
:10066000C00E8901C9B28140FF23834010689843BE
:10067000084310607047C0461CED00E000E400E055
:1006800084B0FFF79DFE052006073F213046FFF7A7
:1006900079FDC0213046FFF753FD0125E8020190A6
:1006A000411C564F3846FFF74BFDFFF7DBFE002499
:1006B00020462146FFF792FF51A0FFF71FFF284673
:1006C00002942146FFF78AFF5148FFF717FF514C6C
:1006D0000396FFF767FE05466068281AC92845D3C8
:1006E000012638463146FFF76FFD002829D03846ED
:1006F0000199FFF769FD00282CD08021039F38461F
:10070000FFF762FD00285FD040213846FFF75CFD0F
:1007100000283A4F2AD1404A16705068C1087C29F7
:1007200001D80A3050600120029E3146FFF756FF83
:100730003A48FFF7E3FE38484068FFF7E9FE3848DB
:1007400010E0029E3448067001203146FFF746FF54
:1007500039A007E0304806703046029E3146FFF768
:100760003DFF30A0FFF7CAFE668065606088401CD0
:10077000608080B23549884206D101200021FFF710
:100780002DFF2348FFF7BAFEFFF70CFE6178491CE6
:100790006170214A11780029039E10D0A168411A86
:1007A0005268914295D3A060207841424141217026
:1007B00000288ED13F213046FFF7E4FD89E73F2135
:1007C0003046FFF715FF84E7134A167050680B2870
:1007D00001D30A3850600120029E31461746FFF7C8
:1007E000FDFE0E48FFF78AFE7868FFF791FE0C4881
:1007F000FFF784FE66806560004FB7E70004005095
:10080000202020417373656D436F727020200000BB
:10081000010A00081800002000000020F909000863
:10082000F2090008427574746F6E20322020202077
:100830002052554E00000000427574746F6E2031D6
:100840002020202053544F5000000000E8FD0000FD
:100850000FB410B504A9074B02AA039800F01CF8C6
:10086000044602A9002000F0BFF8204610BC08BCD6
:1008700004B01847E909000802E008C8121F08C1BF
:10088000002AFAD170477047002001E001C1121F11
:10089000002AFBD170470000FFB58DB0044600254B
:1008A00006E025280AD0109A0F999047641C6D1C09
:1008B00020780028F5D1284611B0F0BD002701218D
:1008C000484A009700E00743641C23780846203B11
:1008D00098401042F7D120782E2817D104200743E2
:1008E0006078641C2A280CD10E98641C02C8009100
:1008F0000E900BE000990A22514330394018641CD5
:1009000000902078014630390929F3D92078002851
:10091000D1D0642808D0692806D075281ED0109A36
:100920000F9990476D1C5BE00A200E99019001C958
:100930000E91002802DA40422D2102E0390504D54B
:100940002B216A461172012103E0F90704D020210E
:10095000F7E70BAE0B910DE00021FAE70A200E99A4
:10096000019001C90E91F7E70199FFF7C1FB303102
:10097000761E31700028F7D103A8801B203001902B
:10098000780701D5009801E0012000900199884284
:1009900001DD401A00E000200027009006E002A8D8
:1009A000109AC05D0F9990476D1C7F1C0B98874271
:1009B000F5DB04E0109A30200F9990476D1C0099E8
:1009C000481E00900029F5DC05E03078109A761C6E
:1009D0000F9990476D1C0199481E01900029F4DC85
:1009E000641C65E7092801000A68531C0B6010703D
:1009F0007047206D732020200053706565643A2095
:100A00000050757961204465764B6974203230322C
:100A100035000000380A000800000020180000001F
:100A200078080008500A0008180000201002000092
:100A3000880800080000000001000000FA00000023
:100A4000040000000100000000127A000000000015
:04000005080000C12E
:00000001FF
