:020000040800F2
:10000000A8020020D5000008F1100008E10F000848
:1000100000000000000000000000000000000000E0
:10002000000000000000000000000000F5100008C3
:100030000000000000000000F3100008F7100008A6
:10004000E7000008E7000008E7000008E7000008F4
:10005000E7000008E7000008E7000008E7000008E4
:10006000E7000008E7000008E7000008E7000008D4
:10007000E7000008E7000008E7000008E7000008C4
:10008000E7000008E7000008E7000008E7000008B4
:10009000E7000008E7000008E7000008E7000008A4
:1000A000E7000008E7000008E7000008E700000894
:1000B000E7000008E7000008000000000000000062
:1000C0000348854600F03CF8004800472515000825
:1000D000A80200200448804704480047FEE7FEE7E6
:1000E000FEE7FEE7FEE7FEE751110008C100000849
:1000F00030B50B46014600202022012409E00D46C0
:10010000D5409D4205D31D469540491B2546954047
:1001100040191546521E002DF1DC30BDD2B201E06F
:100120000270401C491EFBD270470022F6E710B552
:1001300013460A4604461946FFF7F0FF204610BD55
:10014000064C0125064E05E0E36807CC2B430C3C2A
:1001500098471034B442F7D3FFF7B6FF18170008DA
:1001600038170008FEB50020059004900121039186
:100170000290062001900520000701A900F016F961
:1001800006B080BDF0B591B004460A252946FFF7B8
:10019000AFFF2946DF2293001A46C24001252A40BC
:1001A00003920A4605904243A01AC0B20290C3408F
:1001B0002B400493A8020F901095E8030E900520A1
:1001C00000070190019E70E000220C9230460D91D4
:1001D0000E99384DA84780210B913046109F3A4622
:1001E000A847059834490C5C22463A4020210A91E0
:1001F0003046A847A007C20FCC483946A847600739
:10020000C20F02210991C948A8472007C20FC74859
:1002100007460F99A847E006C20F04210891384607
:10022000A847A006C20F402107913046A8470821E1
:1002300006913046039AA847109F384600F0A6F86A
:1002400030460E993A46A84730460B990C9AA84773
:10025000029819490C5C22463A4030460A99A84750
:100260002B46A007C20FB14D284639461F46984776
:100270006007C20F28460999B8472007C20F2846D1
:100280000F99B847E006C20F28460899B847A0065C
:10029000C20F30460799B84730460699049AB847C6
:1002A000109800F073F80D99491E00298CD111B0F7
:1002B000F0BDC0463D0500080C17000870B586B0BB
:1002C00000200590304A136801210B431360136826
:1002D0000B400093009B13680224234313601268B1
:1002E00022400092009A04900390029168200190AD
:1002F0000520040701AD084E20462946B0470748AF
:1003000001908A482946B047054801902046294671
:10031000B04706B070BDC046AD030008070400003A
:1003200080800000FEB51848016801221143016079
:10033000006810400190019802200590002104916E
:1003400003910290500201900520000701A900F0DE
:100350002DF806B080BDC046FEB50B4801680222EC
:100360001143016000681040019001980020049042
:100370000390029201200590000201906B4801A9B0
:1003800000F014F806B080BD34100240B0B5044649
:1003900000F0DCF80546601C02D08948406804196A
:1003A00000F0D4F8401BA042FAD3B0BDF0B589B03C
:1003B0000F465A49884201D0032100E002210091F2
:1003C00000252A4607952E4602979FE001240494B3
:1003D000B44023400693002B00D191E0089603928D
:1003E00005957B6810211943122910D13D461C2127
:1003F000079A11400F228A40089BDE08B600861932
:10040000376A97432A698A403A4332626B68032607
:100410003146059DA94007688F431A460196324030
:10042000AA403A4306460260C943122B15D8049AE3
:100430009A403D48024210D03046B2680A40029DC0
:10044000EF68059DAF401743B760DA06D20F089FEB
:10045000BA407768A74317437760F2680A40029F63
:100460003046B968A9401143F160D900039A089E4B
:1004700046D5182111400F238B403246019CA243E0
:10048000274CA218146E9C43603205231B07984228
:1004900005D0264B9842009E02D1049E00E0002623
:1004A0008E40264316601F4909687A68D30302D537
:1004B000069B194301E0069B9943089E194B19605E
:1004C0005968930302D5069B194301E0069B9943A3
:1004D000144B596012490968D30202D5069B19438F
:1004E00001E0069B99430E4B19605968920202D5B0
:1004F000069A114301E0069A9143094A5160039A12
:10050000AD1C08320799091D0791761C3B681946F6
:10051000F14000D05AE709B0F0BDC04600080050D5
:100520000018024080180240060006000004005037
:1005300000690840002800D001207047002A01D03F
:10054000182200E02822815070470000054800680A
:100550007047C0461A48406802490A681018086087
:100560007047C046A000002080B5032000F008F8C6
:10057000002801D0012080BD00F024F8002080BDBB
:1005800070B50F4E71680124002916D005467D20F4
:10059000C000FFF7ADFD014673480068FFF7A8FDF6
:1005A00000F0A6FB032D08D8002806D10024E04364
:1005B0002946224600F007F83560204670BDC04647
:1005C00000000020704780B500F08CFF80BD000067
:1005D000FEB50126002800D1ADE00D46019602903F
:1005E00056480068032100910840A84215D253489C
:1005F000014600680326B04328430860504CFFF7CB
:10060000A5FF07464D4800683040A84205D0FFF7D7
:100610009DFFC01BA042F5D98DE0029F386881077D
:10062000524B0DD5410704D5072109031A680A4327
:100630001A600F2109021A688A43B96811431960C8
:10064000C0071AD13D48006803263040A8422AD985
:100650003A4801460068B04328430860384CFFF729
:1006600075FF0746354800683040A8421BD0FFF7A9
:100670006DFFC01BA042F5D95DE0786804283DD825
:10068000810001A251588F469D060008E906000826
:10069000F3060008FD06000801070008194608399E
:1006A000096849052EE0029A1078400708D507200E
:1006B00000032E490B4609688143D068084318603F
:1006C00000F058F82949096889093C220A401D4967
:1006D00089581F220A40D040234908601A48006800
:1006E000FFF74EFF064626E01946083909688903D8
:1006F00008E0194608390968890103E0996D00E0AE
:10070000596D8907019E16D5196807229143014347
:1007100019600B4CFFF71AFF064614480068382191
:1007200001407868C00081428CD0FFF70FFF801B2A
:10073000A042F2D9009E304603B0F0BD0020024036
:10074000881300008C16000800000020064800688E
:1007500006490968890A1C220A40054989581F224E
:100760000A40D0407047C0460800002008100240F0
:10077000CC16000810B5234988688006400F07D0C2
:10078000886838231840204A08280FD1104610BD29
:100790000A6848680004400F042800D9002080003F
:1007A0001E4908589104490FC84010BD8868184078
:1007B00010280DD1C86803230340C8680C240440E6
:1007C00012A00059022B0FD0032B18D1504310BD9B
:1007D0008A681A400120C003202A04D08968194081
:1007E000182900D0002010BD49680904490F0429C8
:1007F00000D900218900094A5158484310BD0849D1
:10080000484310BD0010024000366E010200000097
:10081000030000000200000002000000781600083B
:1008200000093D00F0B587B00125002800D102E2A3
:10083000049505900078C007FD4B26D105980078F7
:10084000800754D4059800780007FC4A00D582E060
:10085000059B1878400700D594E0586A002800D11D
:10086000E8E1F64B996838220A40102A00D0D3E01C
:10087000012800D193E0D868032101400598806ADF
:100880008142049D00D1D5E1D5E19868D96803255E
:100890002A468A433821014010204840821850429D
:1008A0005041082965D0002863D105984768002F7A
:1008B00000D1D4E08068002871D0E04C2169A943C0
:1008C00001432161012211048F4208D020680523D1
:1008D0001B049F4200D0C4E09204104320602068B3
:1008E00008432060FFF732FE06462746C8E0F64878
:1008F000014680683827074010207840C9680324E3
:10090000214002224A40811848424841002F48D0E5
:10091000002846D12746059B5A6901208602EA4CE9
:100920002168002A00D1D8E00722D20291439A69B7
:100930000A4322600002216801432160FFF706FE9E
:1009400005462068304200D0D9E0FFF7FFFD401B8C
:100950000228F6D9D1E0906838210140182943D106
:10096000106E800700D473E70598006A002816D03F
:100970006EE71868800300D460E705984068002897
:100980000DD05BE790683821014020295CD1D06D03
:10099000800700D461E7D868002800D05DE7049D97
:1009A00049E10125C84800684005059B03D5586901
:1009B000002800D13FE10394AC02C448401CC24966
:1009C0000A4649680140D86908435060FFF7BEFDF8
:1009D0000646BD48006820425ED1FFF7B7FD801B88
:1009E0000228F6D9039D26E10598016A106E0029B8
:1009F00000D19FE0012108431066FFF7A7FD0646DE
:100A0000B14A106E800700D522E7FFF79FFD801BDB
:100A100003250228F4D90EE1012214061968A14326
:100A200019605706022873D10492FFF78FFD06461E
:100A3000A5480068384200D1C8E0FFF787FD801B59
:100A400003250228F4D9F6E001231907D06BC00072
:100A50000191039300D48BE00020029090E09A4C27
:100A600020680122110488432060039290042168C9
:100A700081432160FFF76AFD0646002F27466BD0B1
:100A8000012044043868204200D0D7E6FFF75EFD1D
:100A9000801BC828F6D9CEE0002F16D10720C0024F
:100AA00089490C460968814305988069084320609C
:100AB000FFF760FEA16889093C220A4084498958F1
:100AC0001F220A40D0408349086083480068FFF72E
:100AD00057FD002800D0AEE0B4E60002814321605B
:100AE000FFF734FD05462068304200D1AAE6FFF743
:100AF0002DFD401B0228744CF5D93D469BE0734800
:100B0000401C616801400598C0690843606099E62F
:100B1000D8680325A843D860FFF718FD04466A4843
:100B20000068384200D185E0FFF710FD001B022865
:100B3000F5D980E0012188431066FFF707FD0646DE
:100B4000614A106E800700D482E6FFF7FFFC801B2D
:100B500003250228F4D96EE0039844043868204243
:100B600000D16BE6FFF7F2FC801BC828F6D962E0E3
:100B7000D06B0843D063D06B084006900698029370
:100B8000564F3868C00511D40398040238682043D2
:100B90003860FFF7DBFC06463868204206D1FFF7D5
:100BA000D5FC801B03250228F6D944E00598C568CA
:100BB0004B4C002D06D000698103890F40D0424B79
:100BC000039E40E0404BD86D039E51E00598816A3A
:100BD000C06A022910D103220346934341A2D2588E
:100BE000394B5B68DB0A25461C241C403F4B1B59D4
:100BF0002C469342049D1ED3334BDA680325AA4347
:100C00000A43DA60D9680C2291430143D96018681D
:100C100020431860FFF79AFC04462B4800683842CE
:100C200008D1FFF793FC001B0228F6D903E0C04669
:100C3000001002400025284607B0F0BD0010024019
:100C4000039E7004204B032109041A698A4302435E
:100C50001A61012D05D0D86D052D09D10421084355
:100C6000D865D86D3043D865FFF770FC06460AE0BA
:100C7000B043D865D86D04218843D865FFF766FC7A
:100C80000646002D0AD01049C86D800711D4FFF721
:100C90005DFC801B0325A042F5D9CCE70A49C86D4D
:100CA000800706D5FFF752FC801B0325A042F5D92B
:100CB000C1E702980028059B00D1CEE5C86B019AD8
:100CC0009043C863C9E5C04600100240FFFFFEFF25
:100CD0008C16000808000020000000200070004072
:100CE00088130000001BB7000024F400EC16000875
:100CF000401E010E01D0012070470749074A50608D
:100D0000074803680B400321890759180160002038
:100D10009060072111607047FFFFFF0010E000E0C6
:100D200020ED00E0F8B505463C20285C012801D103
:100D300002205AE00C462E463C36012333703D20FB
:100D400002212954CA412F463D37032A4AD800932D
:100D50007A441279520097440110203128682146C4
:100D600000F056FA2868816908220A438261816985
:100D700004229143816118301DE02868214600F06B
:100D800085FA009BD902286882690A438261990228
:100D900082698A43826118301FE02868214600F08A
:100DA000ABFA2868C16908220A43C261C1690422FA
:100DB0009143C1611C302169009B10E028682146E5
:100DC00000F0DAFA009BD9022868C2690A43C261BE
:100DD0009902C2698A43C2611C3021690902026812
:100DE0000A4302603B700020307001B0F0BDB0B526
:100DF000002816D004463D20205C25463D350028BD
:100E000005D13C2000212154204600F00CF802209E
:100E1000287001CC214600F0B7F90120287000208D
:100E2000B0BD0120B0BD7047B0B5054600680124D3
:100E3000224600F0DFF928680C4941180A22D14106
:100E4000072908D822468A40E1210A4203D0E1035B
:100E5000426C0A434264816807220A40062A02D093
:100E60000168214301600020B0BDC04600D4FEBF30
:100E7000F8B500283DD004464520205C2546453580
:100E8000002805D1442000212154204600F034F8E8
:100E90002420287001277E032068C168B143C16007
:100EA000204600F097FA2021605C400620680ED5AD
:100EB0003A0343699343676A3B434361974206D1D0
:100EC0000322520343699343A26A1A4342610922EF
:100ED000D20203699343036142692A239A43426120
:100EE000C2683243C2600020A06429704622A15427
:100EF00000E0012001B0F0BD70470000F0B585B002
:100F000004930E4605464520285C0221202858D12E
:100F10000120002E56D01446002A53D0012213037C
:100F2000A868984204D12869002801D1F0074BD164
:100F30004420285C0128084644D0294645312846EB
:100F40004430009002700027AF64212001910870A6
:100F50000293FFF7FBFA03906C862C86A86802992F
:100F6000884207D128690028374600D0002700288A
:100F700000D10646194C17E080212846039A049BAD
:100F800000F086FA00281AD1002E04D028683178A3
:100F90004160761C05E03888204029684860BF1C05
:100FA0000026688E401E6886688E0028E4D14021A5
:100FB0002846039A049B00F06BFA002806D0032011
:100FC00000E0084605B0F0BD1046FBE7202001997F
:100FD0000870002000990870F4E7C046FF01000087
:100FE000FEE70000B0B586B00020059012490A68FF
:100FF00002231A430A600A681A400092009A0A689B
:1010000001252A430A60096829400091009904904B
:10101000039002951F20C0020190084801AC2146B0
:10102000FFF7C4F928020190052000072146FFF7C9
:10103000BDF906B0B0BDC0463410024000040050F7
:1010400070B588B000250795069505950495012093
:10105000C102244A13680B43136012680A400092CD
:101060000099104C23267101BE4A22606060A56081
:10107000E16025616561A5612046FFF7B8FE059531
:101080000395300102906020019001A904252046BB
:101090002A46FFF747FE20462946FFF7C5FE08B05F
:1010A00070BDC046600000201CB5012080030D49C2
:1010B0000A6802430A6009680140019101980A48E0
:1010C00000210C224B23DB01084C44608360C1608B
:1010D000016141618261C1610162001DFFF7C8FECB
:1010E0001CBDC046401002401000002000380140E6
:1010F00070477047704780B5FFF72CFA80BDB0B5D8
:1011000090B004AD281D2C21FFF70FF800240394A4
:101110000294019400940D9410200B900120000281
:101120000990022004902846FFF77CFB002800D09D
:10113000FEE703940294019407200090684621463C
:10114000FFF746FA002800D0FEE710B0B0BD00005F
:101150007F204106084802680A400849096811438F
:10116000074A126812040A4301214B031343036028
:10117000C806044908607047041002400832FF1F87
:101180004833FF1F08ED00E010B50368174A90428E
:101190000BD0174CA0420DD0744CA0420AD0744C16
:1011A000A04207D06F4CA0420AD17024A3434C68E0
:1011B0001C4300E01C4603231B029C43CB682343D3
:1011C0008024A3434C691C4304608B68C3620B6892
:1011D000836201239C07A04204D0624CA04201D04C
:1011E000904201D109690163436110BD00040040D0
:1011F0000020004010B51F230B4001219940046AD4
:101200008C4304629A40016A1143016210BD0000E0
:10121000F8B5026A0124A2430262056A02229543DC
:10122000436882698F682F437325AA430E684D4D2A
:10123000A84205D04D4DA84202D04D4DA8420AD13A
:101240000C25AF43CD68009333460426B5431E46B4
:10125000009B3D4300E03D4632435D4E86190A2720
:10126000FE41072E10D8B440E12634420CD00324AE
:101270002402A3434C698E691C4334434460826159
:10128000496841630562F8BD1C46F7E770B5026A1C
:1012900010239A430262046A2022944343688569BA
:1012A0008A681201224373242402A5430C68240295
:1012B0002C432C4DA84209D02B4DA8420DD02B4DCC
:1012C000A8420AD02A4DA84207D00FE0C025AA4361
:1012D000CD682D014026B5432A430325AD02AB431B
:1012E0004D698E69AD001D43B3002B43436084619B
:1012F00049688163026270BD70B501242202036AED
:1013000093430362056A4268C66973239E430B6870
:1013100033436402A5438C6824022C43114DA84238
:1013200009D0114DA8420ED0104DA8420BD0104D3F
:10133000A84208D010E00325AD02AC43CD682D02D1
:101340000C4E2E40344303252D03AA434D698E696C
:101350002D01154332012A434260C3614968C163CC
:10136000046270BD002C0140004001400048014073
:101370000044014000FBFFFFF0B501231A03046A9B
:10138000944304625A03056A95434468C6698A68AF
:1013900012032A4373252D02AE430D682D023543F7
:1013A0000B4E86190A27FE41072E0FD81F46B7405D
:1013B000E12637420AD09B039C434B699B012343A0
:1013C0004360C561496801640262F0BD2346F7E7E6
:1013D00000D4FEBFF8B5044603210A030068036980
:1013E0009343E2681A43026162692369A568C6688B
:1013F000264F37401D4315433D43C560E669012232
:10140000D7024269BA4332434261090242698A43C0
:10141000A16911434161FFF799F901461920484339
:101420006321CD436168BE4215D14900FEF760FEDD
:10143000064664273946FEF75BFE00904543A8192F
:10144000C00032303946FEF753FE0721014040000C
:101450001F22120112E08900FEF74AFE06466427A9
:101460003946FEF745FE00904543A8190001323089
:101470003946FEF73DFE0F210140F0220240009860
:1014800000011018014320688160F8BDF3E9FFFFF7
:10149000F8B51D4616460F460446206801683940D7
:1014A000B9421CD0691CF8D0002D05D0FFF74EF8CA
:1014B000801BA842F1D920680D214901C2688A43E6
:1014C000C26041690122914341614520202121549C
:1014D00044200022225446202154032000E0002012
:1014E00001B0F0BD002805DB0322034693430C4AFC
:1014F0009A1806E00F220240083A03239A43074B4A
:10150000D2188007C00E8901C9B28140FF238340F1
:1015100010689843084310607047C0461CED00E017
:1015200000E400E086B0FFF71FF8FFF7E8FDFEF7E4
:10153000C5FEFFF757FDFEF715FEFEF7F3FEFFF7BA
:101540007FFDFEF709FFFFF7AFFD3DA003A91CC813
:101550001CC10124200201900520060700200290F2
:101560003C4D02213046FEF7E3FF002802D1002067
:101570003749087004213046FEF7DAFF002801D110
:10158000334804700298C7B23846FEF7FBFD304876
:101590000078002804D0781C6421FEF7A9FD029190
:1015A0002878401C2870C1B20A2905D1E1022748D9
:1015B0002246FEF7C3FF2878C1B2142905D12103C2
:1015C00022482246FEF7BAFF2878C1B21E2905D16B
:1015D00061031E482246FEF7B1FF2878C1B22829D0
:1015E00005D1A10319482246FEF7A8FF2878C1B209
:1015F000322905D1E10315482246FEF79FFF2878DE
:10160000C1B23C2905D1012230460199FEF796FF6F
:101610002878C0B24628A4D11F20C10200270B4859
:101620003A46FEF78BFF304601993A46FEF786FFB1
:101630002F70281DFB4303A90B22FFF75FFC90E7E7
:10164000417373656D436F72700D0A0000040050A2
:101650000C0000201000002002E008C8121F08C182
:10166000002AFAD170477047002001E001C1121F23
:10167000002AFBD17047000000093D0000127A00EB
:101680000024F4004086510100366E010000000085
:10169000000000000000000000000000000000004A
:1016A0000000000000000000000000000100000039
:1016B000020000000300000004000000060000001B
:1016C0000700000008000000090000000000000002
:1016D0000000000000000000000000000100000009
:1016E00002000000030000000400000000093D00AB
:1016F00000127A000024F4004086510100366E0189
:1017000000093D0000093D0000093D003F065B4F18
:10171000666D7D077F6F000038170008000000200D
:10172000100000005816000848170008100000209C
:101730009802000068160008040000000100000084
:0817400000127A000100000014
:04000005080000C12E
:00000001FF
