:020000040800F2
:1000000090020020D5000008B51C0008811B0008E4
:1000100000000000000000000000000000000000E0
:10002000000000000000000000000000D51C0008D7
:100030000000000000000000B71C0008D71C0008EA
:10004000E7000008E7000008E7000008E7000008F4
:10005000E7000008E7000008E7000008E7000008E4
:10006000E7000008E7000008E7000008E7000008D4
:10007000B1010008E7000008E7000008E7000008F9
:10008000E7000008E7000008E7000008E7000008B4
:10009000E7000008E7000008E7000008E7000008A4
:1000A000E7000008E7000008E7000008E700000894
:1000B000E7000008E7000008000000000000000062
:1000C0000348854600F062F800480047B11D00086B
:1000D000900200200448804704480047FEE7FEE7FE
:1000E000FEE7FEE7FEE7FEE7E11C0008C1000008AE
:1000F00030B50B46014600202022012409E00D46C0
:10010000D5409D4205D31D469540491B2546954047
:1001100040191546521E002DF1DC30BD70B500248B
:100120002546002801DA01244042002901DA012590
:100130004942FFF7DDFFAC4200D04042002C00D026
:10014000494270BD03460B439B0703D009E008C931
:10015000121F08C0042AFAD203E00B780370401C77
:10016000491C521EF9D27047D2B201E00270401C05
:10017000491EFBD270470022F6E710B513460A4627
:1001800004461946FFF7F0FF204610BD064C012536
:10019000064E05E0E36807CC2B430C3C984710342F
:1001A000B442F7D3FFF790FFA81E0008C81E00084E
:1001B00010B5024800F07DFA10BD00001C000020C0
:1001C00070B50446002520688068C007C00F012173
:1001D00048404840002820D0206880688843216833
:1001E000886000F06BFD05460EE000F067FD401BE7
:1001F000022809D9E06A10210843E062206B01213E
:1002000008432063012070BD20688068C007C00FCC
:100210000121484048400028E7D10020F3E70000D2
:1002200038B5044600250020009020688068C0078B
:10023000C00F01214840484000283BD12068806819
:100240000843216888601020C0432168086040107E
:1002500021680860184919480068FFF749FF142110
:100260004843009002E00098401E0090009800284B
:10027000F9D100F023FD054613E000F01FFD401BFF
:1002800002280ED9E06A10210843E062206B0121A8
:100290000843206300BF00212820015500BF012032
:1002A00038BD20688068C007C00F01214840484021
:1002B0000028E2D00020F3E740420F0000000020B9
:1002C00000B58BB00020089009900A901C2101A86D
:1002D000FFF751FF00BF224800680121490208438F
:1002E0001F4908600846006849150840009000BF93
:1002F00000BF48010190C001079001A800F0A8FECE
:10030000184819490860002048600021164881609B
:10031000C160017401214161002101760121C161A7
:1003200007214904016200F07FFA002801D000F0A3
:100330001DF8092008900120099004200A9008A9BE
:10034000094800F0E7F8002801D000F00FF806484F
:1003500000F048F8002801D000F008F80BB000BD0C
:1003600040100240002401401C00002000BFFEE7B6
:1003700000B591B0302105A8FFF7FDFE00200190E7
:100380000290039004900F200590FF2001300A9006
:1003900000200B9012480089C004C00C01214903C1
:1003A00008430C90002006900D90089001200E90BC
:1003B00005A801F0B3F8002801D0FFF7D7FF072008
:1003C00001900020029003900490002101A800F009
:1003D00023FF002801D0FFF7C9FF11B000BD0000C6
:1003E0000032FF1FF8B5044600260020009000BF31
:1003F0002820005D012801D10220F8BD012128201C
:10040000015500BF2046FFF7DBFE0646002E75D1E2
:10041000E06A11210902884302210843E06248038F
:1004200000F0DAFC0746394638480068FFF760FEFE
:100430004000009002E00098401E009000980028C4
:10044000F9D120688068C007C00F00280CD0E06A8E
:100450000221884310210843E06200BF00212820C8
:10046000015500BF0120C8E72068806808210843C3
:100470002168886000F022FC054611E000F01EFCB7
:10048000401B0A280CD9E06A022188431021084346
:10049000E06200BF00212820015500BF0120ACE729
:1004A00020688068082108400028E7D1206880681B
:1004B000042108432168886000F000FC054611E033
:1004C00000F0FCFB401B0A280CD9E06A022188439B
:1004D00010210843E06200BF00212820015500BF21
:1004E00001208AE720688068042108400028E7D1BD
:1004F000E06A0221884301210843E06200BF002135
:100500002820015500BF304677E70000000000209A
:1005100070470000F8B505460C4600260020009004
:1005200000BF2820405D012801D10220F8BD012133
:100530002820415500BF6068072812D22868806BC8
:100540002179491E8A008A181F2191408843227907
:10055000521E9300D218216891400843296888638D
:1005600027E060680D2812D22868406B2179C91FE6
:100570008A008A181F21914088432279D21F930054
:10058000D2182168914008432968486311E028681F
:10059000006B21790D398A008A181F219140884308
:1005A00022790D3A9300D2182168914008432968B6
:1005B00008632068142812D32868C0682178143989
:1005C0004A008A180721914088432278143A530040
:1005D000D218A168914008432968C86025E02068C6
:1005E0000A2812D32868006921780A394A008A1833
:1005F00007219140884322780A3A5300D218A16813
:1006000091400843296808610FE028684069217813
:100610004A008A1807219140884322785300D21853
:10062000A16891400843296848612068102802D0D9
:100630002068112827D11749286888421ED12868C8
:1006400080680121C905084000281CD128688068FD
:100650000843296888602068102814D10E490F4883
:100660000068FFF745FD0A214843009002E000982A
:10067000401E009000980028F9D104E0E86A20218B
:100680000843E862012600BF00212820415500BF31
:1006900030464BE70024014040420F00000000209C
:1006A0000168096D014A11807047000004000020B4
:1006B000704710B504462068406820210840202873
:1006C00033D1206800680221084002282DD1E06A59
:1006D00010210840002803D1E06A49010843E06284
:1006E00020688068072149040840884216D1207C90
:1006F000002813D120684068202188432168486081
:10070000E06AFF2101318843E062E06A09010840A4
:10071000002803D1E06A01210843E0622046FFF788
:10072000BFFF1220C0432168086020684068802114
:100730000840802841D1206800680421084004282E
:100740003BD1E06A10210840002803D1E06A490249
:100750000843E06220688068072109030840884256
:1007600010D02068406801218902084000281DD16E
:1007700020688068072149040840884216D1207CFF
:10078000002813D120684068802188432168486090
:10079000E06A012109038843E062E06A0911084028
:1007A000002803D1E06A01210843E0622046FFF7F8
:1007B000AFFE0C20C04321680860206840684021DB
:1007C0000840402810D120680068C007C00F0028EA
:1007D0000AD0E06A89020843E062204600F0DAF8B5
:1007E0000120C0432168086020680068202108407B
:1007F000202817D12068406809060840884211D196
:100800002068806849150840002806D0206B022126
:10081000084320632046FFF74BFF2068016D204608
:1008200000F0E6F810BD0000F8B5044600270025EA
:10083000002600200090002C01D10120F8BDE068C6
:10084000002802D1207E002800D000BF207E002892
:1008500000D000BFE06A002806D1206300212820D4
:100860000155204600F098F82046FFF7A9FC0746FE
:10087000E06A1021084000287ED1002F7CD1E06A78
:1008800011210902884302210843E062216AA0681D
:100890000843217C490008430643FF210131E068F9
:1008A000884202D0E068012802D1FF20013000E038
:1008B0000020616808430543207E012812D1207C76
:1008C000002807D1E069401E40030121C902084306
:1008D000054307E0E06A20210843E062206B012124
:1008E000084320632068406827490840284321685E
:1008F0004860206880682549084030432168886046
:10090000FF210131E068884202D0E068012802D16D
:10091000FF20013000E00020FF210131884202D099
:10092000207E012803D1A08A401E00050090206887
:10093000006B0F210905884300990843216808636B
:100940002068806812490840B04209D10020206325
:10095000E06A0221884301210843E06211E00BE0D4
:10096000E06A0221884310210843E062206B0121E4
:1009700008432063012704E0E06A10210843E06295
:10098000012738465AE70000FF16FFFCFDF7E1FF9C
:10099000FE0E1FF17047000010B586B0044614210A
:1009A00001A8FFF7E8FB00BF1048406B0121084396
:1009B0000E4948630846406BC007C00F009000BF57
:1009C00000BF10200190032002900020039001A995
:1009D0000520000700F08AF8002211460C2000F0E4
:1009E000F1F90C2000F0DCF906B010BD0010024057
:1009F0007047000070B50446002500BF2820005D48
:100A0000012801D1022070BD01212820015500BF1D
:100A10002046FFF705FC0546002D46D1E06A264931
:100A20000840FF2101310843E062206840688900E6
:100A30000840002805D0E06AC900884349100843EF
:100A4000E062E06A012109030840002804D0206B1D
:100A500006218843206301E00020206300BF0021BD
:100A60002820015500BF2068006DC81E216808605D
:100A70002068406811490843216848602068806800
:100A8000072149040840884207D120688068052171
:100A900009050843216888600CE02068806801210E
:100AA000090508432168886004E000BF0021282070
:100AB000015500BF2846A6E7FEF9FFFF20000020F1
:100AC00070B5044600F0FAF806462546681C002872
:100AD00002D0054800682D1800BF00F0EFF8801B19
:100AE000A842FAD370BD00001800002070B503467C
:100AF0000022D0E0012696400C683440002C71D0D2
:100B00004D68022D02D04D68122D15D1D508AE00CA
:100B10001D462035A8595507EE0E0F25B54006464F
:100B2000AE4330465607F60E0D69B5402843D5084A
:100B3000AD001E4620367051186856000325B5409A
:100B40000646AE4330460D79AD07AD0F5600B540B1
:100B5000284318604D68012D08D04D68022D05D03E
:100B60004D68112D02D04D68122D18D1986856008D
:100B70000325B5400646AE4330465600CD68B54025
:100B8000284398605868012595400646AE43304694
:100B900010264D6835402D09954028435860D86887
:100BA00056000325B5400646AE43304656008D68D4
:100BB000B5402843D860012636074D683540B54218
:100BC00068D1384D9608B600A8599507EE0E0F2546
:100BD000B5400646AE43304605252D07AB4202D14F
:100BE00000250BE056E0304DAB4201D1012505E078
:100BF0002E4DAB4201D1022500E003259607F60EEB
:100C0000B5402843274D9608B600A851254D2035FC
:100C100028680546A5432846012636044D68354018
:100C2000B54202D10546254328461E4D2035286091
:100C300068680546A5432846012676044D68354078
:100C4000B54202D1054625432846164D2035686039
:100C5000144D603D28680546A54328460126360503
:100C60004D683540B54202D10546254328460D4D15
:100C7000603D286068680546A5432846012676053C
:100C80004D683540B54202D1054625432846054DFD
:100C9000603D6860521C0D68D540002D00D029E7EA
:100CA00070BD0000601802400004005000080050B1
:100CB000002A01D0816100E081627047014800682C
:100CC00070470000100000200348006803490968CD
:100CD00040180149086070471000002018000020EB
:100CE00010B50024032000F009F8002801D00124E9
:100CF00001E000F033F8204610BD0000F8B50446CE
:100D000000251348006800281ED0114801687D2086
:100D1000C000FFF7EDF9074639460E480068FFF7B7
:100D2000E7F9064600F010FF00280BD1042C07D28B
:100D300000222146401E00F045F80748046004E008
:100D4000012502E0012500E001252846F8BD00004C
:100D500018000020000000201400002008B500BF8B
:100D60000E480068012108430C49086008460068E5
:100D7000C007C00F009000BF00BF00BF0748403849
:100D8000C06B8905084305494039C8630846C06BF4
:100D900009040840009000BF00BF08BD4010024099
:100DA0000146002909DB00BF00BFCB06DB0E012294
:100DB0009A40034B1A6000BF00BF00BF704700009D
:100DC00000E100E070B504460D461646294620466F
:100DD00000F0A2FF70BD0000F8B505460026012016
:100DE0004004854227D19848C469032109020C4078
:100DF000006A02210840002804D00802844201D180
:100E000086011FE19048C06902210840002804D0F3
:100E1000C801844201D1C60114E18B484038006802
:100E20000121490408400028EBD00320000284423D
:100E3000E7D1864E06E1202D7DD004DC012D0CD0BB
:100E4000022D79D13FE0E81FFF38FA38002874D02E
:100E50001F214902401AF4D1CAE07B48446980212D
:100E60000C40002C03D100F0C7FA06462AE0764871
:100E7000006A0221084000280FD07348C0690906A3
:100E80000840002809D17048C0694910084000286E
:100E900003D0802C01D14E1214E06B48C0690221AE
:100EA000084000280ED06848C0690906084000289C
:100EB00008D06548C06949100840002802D0802C3D
:100EC00000D14E12BDE06048446981150C40002CF1
:100ED00003D100F091FA06462CE05B48006A02213B
:100EE0000840002810D05848C0690906084000286A
:100EF0000AD15548C06949100840002804D0081498
:100F0000844201D1C60115E04F48C0690221084062
:100F100000280FD04C48C06909060840002809D0B5
:100F20004948C06949100840002803D00814844289
:100F300000D1C60185E001E082E037E04248446923
:100F400041150C40002C03D100F056FA06462CE067
:100F50003D48006A02210840002810D03A48C06984
:100F60000906084000280AD13748C06949100840DE
:100F7000002804D0C813844201D1860115E032480C
:100F8000C0690221084000280FD02F48C069090617
:100F90000840002809D02C48C069491008400028A2
:100FA00003D0C813844200D186014AE02648446930
:100FB000032189040C40002C03D100F01DFA0646E1
:100FC00015E02148006A02210840002804D04804A6
:100FD000844201D1C6100AE01B48C06902210840C2
:100FE000002804D003208004844200D18E0328E02E
:100FF000154840380468032149050C40002C03D1F2
:1010000000F0FAF946081AE001204005844203D1B5
:1010100000F0F2F9860812E001208005844207D131
:1010200000F0EAF907460621FFF762F8064606E0F7
:1010300003204005844202D100F0DEF9C60800E03A
:1010400000BF00BF3046F8BD401002406CDC02001B
:10105000F8B5044600260025002701214904206830
:10106000084088427ED16948C06BC9020840002808
:101070000DD100BF6548C06B08436449C86308468A
:10108000C06B09040840009000BF00BF0127604802
:101090000068FF2101310840002816D15C48006833
:1010A00008435B490860FFF709FE064606E0FFF7C4
:1010B00005FE801B022801D90320F8BD54480068B2
:1010C000FF21013108400028F1D050484030C0696C
:1010D0000321090208400546002D33D0606908400D
:1010E000A8422FD049484030C06988430546474848
:1010F0004030C06901210904084344494031C861B6
:101100000846C06901210904884340494031C8614B
:101110000846C561E807C00F002813D0FFF7CEFDD1
:10112000064607E0FFF7CAFD801B3A49884201D90D
:101130000320C2E735484030C0690221084040081A
:101140000028EFD031484030C069032109028843AC
:10115000616908432D494031C861012F07D12B48EF
:10116000C06B00E003E0890588432849C863207804
:10117000C007C00F002809D02448403040698021B2
:101180008843616808432149403148610221206851
:101190000840022809D11D4840304069C9018843F0
:1011A000A16808431949403148612021206808405E
:1011B000202809D115484030406909018843E16879
:1011C0000843124940314861012149022068084022
:1011D00088420AD10D484030406903218904884380
:1011E0002169084309494031486101218903206888
:1011F0000840884208D10548006803214905884312
:10120000A169084301490860002056E70010024028
:10121000007000408813000070B504460D46002C95
:1012200001D1012070BD6B4800688007800FA84283
:1012300018D2684800688008800028436549086023
:10124000FFF73CFD064607E0FFF738FD801B6249CB
:10125000884201D90320E5E75E4800688007800FD7
:10126000A842F1D1022120680840022815D10421AA
:1012700020680840042807D15848806807210903DE
:101280008843401855498860544880680F210902F6
:101290008843A1680843514988602078C007C00F7F
:1012A000002854D06068012808D14C48006801210A
:1012B0004904084000282ED10120B3E760680028C7
:1012C00008D146480068012189020840002822D13F
:1012D0000120A7E76068022808D140480068012182
:1012E00049060840002816D101209BE760680428C1
:1012F00008D13A484030C0690221084000280AD18C
:1013000001208FE735484030006A0221084000285C
:1013100001D1012086E731488068C008C0006168BB
:1013200008432E498860FFF7C9FC064607E0FFF72F
:10133000C5FC801B2849884201D9032072E7274851
:101340008068382108406168C9008842EFD121488F
:1013500000688007800FA84218D91E4800688008DE
:10136000800028431B490860FFF7A8FC064607E0F9
:10137000FFF7A4FC801B1849884201D9032051E7DC
:10138000144800688007800FA842F1D1042120682A
:101390000840042808D111488068072109038843C0
:1013A000E16808430D49886000F03AF80B49896804
:1013B0000F2212021140090A8900094A515CC9062C
:1013C000C90EC8400749086007480068FFF796FC47
:1013D00028E70000002002408813000000100240AF
:1013E000D81D0008000000201400002001480068FB
:1013F000704700000000002000B5FFF7F7FF064926
:101400008968072212031140090B8900034A515CC5
:10141000C906C90EC84000BD00100240181E0008D1
:10142000F0B58BB014223A4905A8FEF78BFE384878
:10143000143001460EC9C06801AC0EC40490354892
:10144000806838210840002818D132480068090215
:101450000840C10A012088400A902E4840680721B0
:1014600049030840450B042D00D90025A90005AA11
:1014700050580A99FEF73CFE044645E0254880682E
:1014800038210840082801D1234C3DE021488068DC
:1014900038210840102825D11E48C0688707BF0F93
:1014A0001C48C0680C2108408008800001A90E5823
:1014B000022F05D0032F11D117483446444310E0C2
:1014C00014484068072149030840450B042D00D902
:1014D0000025A80005A90C58744302E0059C74433C
:1014E00000BF11E00B48806838210840202801D156
:1014F000840209E00748806838210840182802D192
:101500000124E40300E0002420460BB0F0BD0000FD
:10151000841E00080010024000366E01F0B587B04E
:101520000446FE4903C905910490FC49083103C9EA
:1015300003910290002C02D1012007B0F0BD207869
:10154000C007C00F00286DD0F548866838210E40CE
:10155000C0688707BF0F102E01D1032F01D0082EBE
:101560000BD1EF48006801214904084000286CD0E5
:101570006068002869D10120DFE7606800280DD08D
:10158000A068002808D0E648006980088000A168AB
:101590000843E349086101E00120CEE700BF0121D3
:1015A00009046068884205D1DD4800680843DC49C9
:1015B000086021E005210904606888420ED1D848FE
:1015C0000068012189040843D5490860084600687D
:1015D000012109040843D24908600DE0D0480068A1
:1015E000012109048843CE490860084600680121AA
:1015F00089048843CA49086000BF6068002812D087
:10160000FFF75CFB054606E0FFF758FB401BC828C8
:1016100001D9032091E7C24800680121490408402C
:101620000028F1D011E0FFF749FB054606E0FFF77F
:1016300045FB401BC82801D903207EE7B848006855
:101640000121490408400028F1D102212068084006
:10165000022874D1B2488068382108400646B04854
:10166000C0688707BF0F102E01D1022F01D0002EB6
:1016700048D1AB480068012189020840002804D005
:101680006069002801D1012057E7A5484068000C97
:101690000004E1690843A2494860FFF70FFB0546D3
:1016A00006E0FFF70BFB401B022801D9032044E7AB
:1016B0009B4800680121890208400028F1D0002ED3
:1016C00018D1974800680721C9028843A1690843D7
:1016D00093490860FFF7A4FE914989680F2212021E
:1016E0001140090A89008F4A515CC906C90EC840D9
:1016F0008D4908608D480068FFF700FB002848D03E
:1017000001201AE7606900282AD08548006807216F
:10171000C9028843A16908438149086008460068F6
:10172000891508437E490860FFF7C8FA054607E0B7
:10173000FFF7C4FA401B022802D90320FDE628E087
:10174000774800680121890208400028F0D07448D9
:101750004068000C0004E16908437149486018E0E2
:101760006F480068FF21013188436D490860FFF729
:10177000A5FA054606E0FFF7A1FA401B022801D9A9
:101780000320DAE666480068012189020840002843
:10179000F1D1082120680840082849D160488068B4
:1017A0003821084018280BD15D484030006A0221DA
:1017B000084000283CD0206A002839D10120BCE62E
:1017C000206A00281AD056484030006A0121084398
:1017D000534940310862FFF771FA054606E0FFF70A
:1017E0006DFA401B022801D90320A6E64C48403080
:1017F000006A022108400028F1D019E04848403032
:10180000006A40084000464940310862FFF756FA36
:10181000054606E0FFF752FA401B022801D90320D3
:101820008BE63F484030006A022108400028F1D191
:1018300004212068084004287CD100200190384809
:1018400080683821084020280BD135484030C069D5
:101850000221084000286ED0E06800286BD10120EA
:101860006BE62F48C06B010F01208843002810D081
:1018700000BF2B48C06B0121090708432849C863F2
:101880000846C06B09040840009000BF00BF01205B
:10189000019027480068FF2101310840002816D137
:1018A00023480068084322490860FFF707FA054605
:1018B00006E0FFF703FA401B022801D903203CE6AB
:1018C0001B480068FF21013108400028F1D0E06882
:1018D000002817D00321090420690840002808D1F6
:1018E0000F48006988430121490441180C480161EF
:1018F00008E00B4800690321090488432169084373
:101900000749086100BFE068012817D1044840304A
:10191000C06901210843024940310DE0741E0008EE
:1019200000100240D81D0008000000201400002014
:101930000070004054E052E0C8611BE0E0680528F8
:101940000CD17E48C069042108437C49C86108461F
:10195000C069012108437949C8610BE07748C06933
:10196000400840007549C8610846C06904218843A1
:101970007249C86100BFE068002812D0FFF79EF9E5
:10198000054607E0FFF79AF9401B6D49884201D9E7
:101990000320D2E56948C069022108400028F1D03F
:1019A00011E0FFF78BF9054607E0FFF787F9401BC9
:1019B0006349884201D90320BFE56048C06902211C
:1019C00008400028F1D10198012808D15B4840382F
:1019D000C06B01210907884358494039C86300BFDB
:1019E000606A002874D05548403880683821084023
:1019F00010286ED0606A02286DD1504840380068C7
:101A00000121090688434D4940390860FFF756F91E
:101A1000054606E0FFF752F9401B022801D90320D2
:101A20008BE54648403800680121490608400028F7
:101A3000F0D1E06A80080690A06A03280DD10698CC
:101A4000800004A908583F49884211D806988000B0
:101A500002A908583B4988420AD3A06A022809D142
:101A600000F02AF90699890004AA5158884201D247
:101A7000012062E531484038C06880088000A16AD2
:101A800008432E494039C8600846C0680C21884385
:101A9000E16A084329494039C860084600680121C5
:101AA00009060843254940390860FFF707F905464C
:101AB00006E0FFF703F9401B022801D903203CE5AB
:101AC0001E48403800680121490608400028F0D02F
:101AD00031E022E0FFE7194840380068012109069B
:101AE00088431649403908600846C068800880006D
:101AF000C860FFF7E3F8054606E0FFF7DFF8401B94
:101B0000022801D9032018E50C484038006801215B
:101B1000490608400028F0D10DE0606A012800D194
:101B20000BE506484038C768B907890FA06A8142AB
:101B300001D0012001E50020FFE400004010024038
:101B40008813000000366E0170B504462546681EF5
:101B50000949884201D901200CE0681E0749486103
:101B60000321081F00F0D8F80020044988610720ED
:101B70000861002070BD0000FFFFFF0000E000E0F2
:101B800000BFFEE700B587B0142102A8FEF7F3FA04
:101B900000BF2648406B0221084324494863084699
:101BA000406B02210840019000BF00BF00BF1F48EA
:101BB000406B012108431D4948630846406BC0073C
:101BC000C00F019000BF00BF1F20C0020290012083
:101BD000039000200490059002A91548FEF786FFA7
:101BE000FF206930029001200390002004900590AE
:101BF00002A905200007FEF779FF0E48029002A90E
:101C00000B48FEF773FF0C48029002A9052000075D
:101C1000FEF76CFF02200290032003900020049046
:101C200002A90348FEF762FF07B000BD00100240A2
:101C30000004005007040000808000003EB51949F0
:101C400019480088FEF76AFAC5B2062D00DD0625A0
:101C5000164A07CA6B4607C300221F21C90214484F
:101C6000FFF726F80022FF21013105200007FFF7CA
:101C70001FF8002413E0052C07DA60006A46115AA9
:101C800001220B48FFF714F807E060006A46115A7A
:101C9000012205200007FFF70BF8601CC4B2AC421C
:101CA000E9DB3EBD8A02000004000020681E000837
:101CB00000040050704770470448406807225203F0
:101CC0001040410B8800024A105870470010024033
:101CD000381E0008704710B5FEF7F6FF10BD000073
:101CE00009484068400E4006012149034018074951
:101CF000896808430649098909040843024948607C
:101D0000C803044988607047001002400032FF1F7A
:101D10004033FF1F00ED00E010B5002819DB1A4A20
:101D200003231B02D21883089B00D2588307DC0EC2
:101D3000FF23A3409A438B071B0E8407E40EA340A6
:101D40001A43114B032424021B198408A4001A51BE
:101D500018E00E4A03071B0F083B9B089B00D25854
:101D60008307DC0EFF23A3409A438B071B0E8407D7
:101D7000E40EA3401A43054B0407240F083CA408B3
:101D8000A4001A5110BD000000E100E01CED00E0CD
:101D900002E008C8121F08C1002AFAD17047704734
:101DA000002001E001C1121F002AFBD17047000092
:101DB000FEF796FFFEF7DCFAFEF782FAFFF7E2FE87
:101DC00007E00448FEF716FE6420FEF779FEFFF7F1
:101DD00035FFF6E71C0000200000000000000000B6
:101DE00000000000000000000000000000000000F3
:101DF00000000000000000000100000002000000E0
:101E000003000000040000000600000007000000BE
:101E100008000000090000000000000000000000B1
:101E200000000000000000000100000002000000AF
:101E3000030000000400000000093D0000127A00C9
:101E40000024F4004086510100366E0100093D0077
:101E500000093D0000093D002000010002000004CF
:101E600004004000080000000008001000200040AE
:101E700000800001001BB7000024F40000366E0152
:101E800000366E0100093D0000127A000024F400C3
:101E90004086510100366E01020000000300000080
:101EA0000200000002000000C81E00080000002020
:101EB0001C000000901D0008E41E00081C0000200B
:101EC00074020000A01D000800127A00000000004B
:101ED00000000000000000000000000004000000FE
:041EE00001000000FD
:04000005080000C12E
:00000001FF
